:020000040800F2
:1000000000E601209D010008D13A0008B52400084F
:10001000393600081B1200083FA10008000000004C
:10002000000000000000000000000000AB94000889
:10003000451A000800000000E30A00088D58000877
:10004000D7010008D7010008D7010008D701000830
:10005000D7010008D7010008651D0008291F000806
:10006000911F0008D7010008D7010008D701000838
:10007000D7010008D7010008D7010008D701000800
:10008000D7010008D7010008D7010008D7010008F0
:10009000D7010008D7010008D7010008D7010008E0
:1000A000D7010008D7010008D7010008D7010008D0
:1000B000ED96000825970008F1970008D701000881
:1000C000D7010008D7010008D7010008D7010008B0
:1000D000D7010008D99A0008C99B0008599D00085B
:1000E000D7010008D7010008D7010008D701000890
:1000F000D7010008D7010008D7010008D701000880
:10010000D7010008AD750008B1980008D7010008B4
:10011000D7010008D7010008D70100087599000829
:10012000D7010008D7010008D7010008D70100084F
:10013000D7010008D7010008D7010008D70100083F
:10014000D7010008D7010008D7010008D70100082F
:10015000D7010008D7010008D7010008999E0008C0
:10016000D7010008D7010008D7010008D70100080F
:10017000D7010008D7010008D7010008D7010008FF
:10018000D7010008D7010008DFF80CD000F01CFCF4
:10019000004800476DF5000800E60120DFF8380050
:1001A000016841F470010160BFF34F8FDFF82C004C
:1001B000016821F040410160BFF36F8F084880471C
:1001C00008480047FEE7FEE7FEE7FEE7FEE7FEE73A
:1001D000FEE7FEE7FEE7FEE788ED00E034EF00E033
:1001E000859600088901000872B6704762B67047AC
:1001F000EFF3108072B6704780F31088704730BFFD
:10020000704720BF7047B0FA80F0704790FAA0F0B6
:10021000B0FA80F0704790FAA0F070472DE9F05FD7
:100220000546002092469B46884606468146402465
:100230001BE0284641464746224600F076FA5346E0
:100240005A46C01A914110D311461846224600F072
:100250005DFA2D1A67EB01084F4622460120002166
:1002600000F054FA17EB00094E41201EA4F10104DE
:10027000DFDC484631462A464346BDE8F09F2DE97B
:10028000F0410024061B254671F1000605DA012421
:100290000027D0EB070067EB0101161E73F1000683
:1002A00005DA0027D2EB0702012567EB0303FFF70E
:1002B000B5FF86460E4617469C46AC4204D0002544
:1002C000D0EB050E65EB010624B10020D2EB000750
:1002D00060EB030C704631463A466346BDE8F08158
:1002E00040EA01039B0703D009E008C9121F08C0B8
:1002F000042AFAD203E011F8013B00F8013B521E38
:10030000F9D2704730B505462A460B4612F8010B64
:1003100013F8014B08B1A042F8D01CB1002802D05C
:100320006D1CF1E7284630BD421C10F8011B002966
:10033000FBD1801A70472DE9FE4F804681EA030009
:10034000C00F0C46009021F0004123F00045B8EBAF
:100350000200A94105D24046214690461C460B4664
:10036000024623F00040104347D0270DC7F30A0090
:10037000C3F30A510290401A019040286BDAC3F38C
:10038000130040F4801B0098924620B10023D2EB6A
:10039000030A63EB0B0B01985946C0F1400250462B
:1003A00000F0B4F906460D4650465946019A00F051
:1003B000CCF910EB08006141002487EA115284EA6D
:1003C000E7731A4340D0009A62B3019A012A4FEAB8
:1003D000075215DC001B61EB02014FF0004202EAFC
:1003E0000752CDE90042001C41F5801132462B46F0
:1003F00000F003FA03B0BDE8F08F40462146F9E76C
:10040000001B61EB0201001C41F5801300185B41E9
:100410002018A2F5001747EB030140EAD570B61982
:100420006D4111E06D084FEA360645EAC0754FEAA6
:100430000752001B61EB0201001C41F580114908C5
:100440004FEA30000019514132462B4603B0BDE857
:10045000F04F00F0C3B90098012240000023D0EB18
:10046000020263EBE073009821464FEAE074B8EBB8
:10047000000061EB0401E9E783F000435BE781F0F2
:10048000004158E72DE9FE4F81EA030404F00044DF
:1004900021F0004100944FF0000B23F0004350EA9C
:1004A00001045ED052EA03045BD0C3F30A54C1F3E3
:1004B0000A552C44A4F2F3340194A0FB0254C1F376
:1004C000130141F48011C3F3130343F4801301FBC0
:1004D000024400FB034E840A970A44EA815447EA27
:1004E0008357A4FB076802958D0A05FB07854FEA31
:1004F000932C04FB0C542705029D4FEA065847EA4B
:100500001637B5EB08056EEB070C870E920E47EA1F
:10051000811742EA8312A7FB0201B6EB0B0164EBE1
:1005200000042B0D43EA0C335E1844EB1C50DA46F2
:100530005146E7FB0201C5F313044FEA0B3343EACC
:1005400014534FEA0432019C43EA0603A4F10C045D
:100550000294009CCDE900B400F04FF903B0BDE86F
:10056000F08F00200146F9E72DE9F04D81EA030400
:1005700004F0004B21F0004514464FF0000A23F030
:10058000004150EA050220D054EA01021DD0C5F313
:100590000A570246C5F31303C1F31300C1F30A5609
:1005A00040F4801543F48013A7EB0608101BD646D1
:1005B00008F2FD3873EB050002D308F1010801E0F1
:1005C00092185B41B8F1000F03DA00200146BDE844
:1005D000F08D00204FF48011064684460EE0171B74
:1005E00073EB050705D3121B63EB050306434CEAC7
:1005F000010C49084FEA300092185B4150EA0107AC
:10060000EDD152EA030012D082EA040083EA050128
:10061000084305D0101BAB4106D20122002306E09F
:1006200000224FF0004302E06FF0010253101AEB7A
:1006300006004CEB085110EB0A0041EB0B01BDE842
:10064000F04D00F0CBB80EB5C10F80EAE070084461
:10065000CA07002140F233438DE80E000A460B46DC
:1006600000F0CBF803B000BD0EB540F2334102916B
:100670000021CDE900110A460B4600F0BEF803B098
:1006800000BD00F0004230F000400AD0C10D01F57D
:100690006071C0F3160042EA0151C20840071143DD
:1006A000704700200146704701F0004330B421F04C
:1006B000004150EA010206D00A0DA2F56072C1F3B2
:1006C0001301002A02DC30BC00207047440F44EACA
:1006D000C104C100E01830BC00EBC25000F047B8C4
:1006E00030B50B46014600202022012409E021FA02
:1006F00002F59D4205D303FA02F5491B04FA02F5FF
:100700002844151EA2F10102F1DC30BD202A04DBD1
:10071000203A00FA02F1002070479140C2F1200314
:1007200020FA03F3194390407047202A04DB203A53
:1007300021FA02F00021704721FA02F3D040C2F101
:1007400020029140084319467047202A06DBCB1748
:10075000203A41FA02F043EAE07306E041FA02F37C
:10076000D040C2F120029140084319467047002949
:10077000A8BF7047401C490008BF20F00100704727
:1007800010B4B0FA80FC00FA0CF050EA010404BF87
:1007900010BC704749B1CCF1200421FA04F411FADD
:1007A0000CF118BF012121430843A3EB0C01CB1D21
:1007B0004FEA00614FEA102042BF002010BC704792
:1007C00000EBC35010440029A4BF10BC7047401C6C
:1007D000490008BF20F0010010BC704710B5141E7E
:1007E00073F1000408DA401C41F1000192185B41EA
:1007F0001A4301D120F0010010BD2DE9F04D9246C1
:100800009B4611B1B1FA81F202E0B0FA80F22032D7
:100810009046FFF77BFF04460F4640EA0A0041EA94
:100820000B0153465A46084313D0114653EA0100C0
:1008300019D0C8F140025046FFF777FF05460E4633
:10084000504659464246FFF761FF084305D0012054
:1008500004E020463946BDE8F08D0020054346EA15
:10086000E0762C4337430A986305E40AA0EB0800BE
:100870000022FD0A44EA47540A3002D5002001460E
:10088000E9E7010510196941DDE9084500196941E9
:10089000BDE8F04DA2E770B521F0004303430CD052
:1008A000C1F30A550024D5EB040564EB0403D61705
:1008B000AD1AB34102DB0020014670BD201841EBA8
:1008C000025170BD2DE9F04D00231A461B1A8A41D2
:1008D00003DB00200146BDE8F08DC1F30A52C1F3ED
:1008E000130141F480154FF0000BD10702D100181D
:1008F0006D41521E0027044640F2FF11384601EBBD
:10090000620A3E468046024600204FF48011FFF7FF
:100910000CFFC2197141BB1846EB0100B4EB030C8C
:1009200075EB000C04D3E41A65EB000517460E4680
:10093000241908F101006D4180463428E3DDF919DE
:1009400046EB0600091BA84103D24FF0FF321346C5
:1009500001E0002213461BEB070046EB0A51BDE8FD
:10096000F04DFFF73BBFC1F30A52C1F3130140F250
:10097000FF3341F480119A4202DA002001467047A9
:1009800040F233439A42A2F2334202DC5242FFF772
:10099000CCBEFFF7BBBE000030B5041E71F10004F1
:1009A00004DB4FF00044404264EB0101141E73F17C
:1009B000000405DB1C464FF00043524263EB040386
:1009C000994208BF904230BD064C074D06E0E068F2
:1009D00040F0010394E8070098471034AC42F6D386
:1009E000FFF7D6FB102901083029010870B5C1F3C3
:1009F0000A5201F000450024C1F3130140F2FF3315
:100A000041F480119A4201DA002070BD40F2334374
:100A10009A42A2F2334203DC5242FFF786FE00E024
:100A200090402C43F1D0404270BD70B58C1810F846
:100A3000015B15F0070301D110F8013B2A1106D123
:100A400010F8012B03E010F8016B01F8016B5B1E3D
:100A5000F9D12B0705D40023521E0DD401F8013B18
:100A6000FAE710F8013BCB1A921C03E013F8015B84
:100A700001F8015B521EF9D5A142D8D3002070BD08
:100A8000EFF3098141B1F1EE101A40F8041D20ED99
:100A9000200A24490A6810607047B0EC200A02C896
:100AA000E1EE101A20490A68106070471F484FF0A5
:100AB000FF010170002080F309881D48016881F35F
:100AC00008881C484FF08051016062B6FEE7194863
:100AD0004FF080510160704716484FF0805101601F
:100AE000704772B6EFF3098028B1203880E8F00F24
:100AF0000C490968086000B50F4880475DF804EBB1
:100B00000E480F490A780270064807490A680260D1
:100B1000106890E8F00F203080F309884EF0F40E52
:100B200062B67047800100208401002022ED00E0C1
:100B30008801002004ED00E035550008FE0000208B
:100B4000FF000020F8B505460C46164630480470F4
:100B5000467000F083FA00F0D4F9284600F09EFABF
:100B600002208DF8000008208DF801008DF8024069
:100B70002848805D8DF8030025B1012D07D0022D96
:100B80000FD109E00421244801F0BCFB09E0082151
:100B9000214801F0B7FB04E010211F4801F0B2FB2F
:100BA00000BF00BF5021284600F0ACF903212846C1
:100BB00000F0A8F99DF80010284600F0A3F99DF870
:100BC0000110284600F09EF99DF80210284600F01A
:100BD00099F99DF80310284600F094F925B1012DEC
:100BE00007D0022D0FD109E004210B4801F08CFB46
:100BF00009E00821084801F087FB04E010210648BD
:100C000001F082FB00BF00BF32200BF0D9FCF8BD21
:100C10009C620020401301080018024070B5054690
:100C20000C46284600F03AFA0021284600F000F968
:100C30002070284600F032FA0121284600F0F8F82A
:100C40006070284600F02AFA0221284600F0F0F8E9
:100C5000A070284600F022FA0321284600F0E8F8A8
:100C6000E070284600F01AFA0421284600F0E0F867
:100C70002071284600F012FA0521284600F0D8F825
:100C80006071284600F00AFA0621284600F0D0F8E4
:100C9000A071284600F002FA0721284600F0C8F8A3
:100CA000E071284600F0FAF90821284600F0C0F863
:100CB0002072284600F0F2F90921284600F0B8F821
:100CC0006072284600F0EAF90A21284600F0B0F8E0
:100CD000A072284600F0E2F970BD10B508200BF0B4
:100CE0006FFC10BD002001E0411C88B20928FBDB2D
:100CF000704700000146072901DD002070470248C7
:100D000050F821201046F9E7A062002010B5034AF0
:100D1000111F081F00F018F810BD0000A862002085
:100D200070B50446204600F0B9F90321204600F0D2
:100D30007FF80546204600F0B1F90021204600F07A
:100D400077F80546281170BDF0B587B005460E4608
:100D500017460020069005900490039002900190A1
:100D600000900421314801F0CDFA08212F4801F00C
:100D7000C9FA10212D4801F0C5FA0322694603A8DB
:100D80000FF076FA0322694602A80FF025FB032232
:100D9000694601A80FF0D2FB0421244801F0B4FAFF
:100DA0000821224801F0B0FA1021204801F0ACFAE5
:100DB00006AC9DF80E0020709DF80D0060709DF847
:100DC0000C00A07005AC9DF80A0020709DF8090089
:100DD00060709DF80800A07004AC9DF806002070BB
:100DE0009DF8050060709DF80400A070069800F45E
:100DF000000018B10698A0F180700690059800F4E4
:100E0000000018B10598A0F180700590049800F4D6
:100E1000000018B10498A0F1807004900698286032
:100E2000059830600498386007B0F0BD00180240A3
:100E30002DE9F04104460D4624B1012C07D0022CC7
:100E40000FD109E004211C4801F05CFA09E00821F7
:100E5000194801F057FA04E01021174801F052FA3E
:100E600000BF00BF45F01001204600F04BF880465F
:100E70000021204600F046F80746FFF72EFF2046E7
:100E800000F01CF8064624B1012C07D0022C0FD12B
:100E900009E00421084801F037FA09E00821064872
:100EA00001F032FA04E01021034801F02DFA00BFEE
:100EB00000BF3046BDE8F081001802401CB5044672
:100EC00000200090FFF70EFF24B1012C08D0022C67
:100ED00012D10BE00122694601A80FF0C9F90CE01C
:100EE0000122694601A80FF077FA06E0012269465F
:100EF00001A80FF023FB00E000BF00BF9DF8040035
:100F00001CBD704770B504460D46FFF7EBFE24B1DB
:100F1000012C06D0022C0CD107E0284608F048F935
:100F200070BD284608F0DEF9FAE7284608F060FAB6
:100F3000F6E70020F4E770B505460C462CB901220F
:100F40001146284600F020F916E0012C05D1232295
:100F50000121284600F018F90EE0022C05D14522A7
:100F60000121284600F010F906E0032C04D1672285
:100F70000121284600F008F970BD00003EB5044686
:100F8000354880F825400021024682F824100020D0
:100F900006E000223049091D41F82020411CC8B25A
:100FA0000828F6DB0121880306F0D8F90221042085
:100FB00008F07CFA0420019000208DF808000C2035
:100FC0008DF8090001208DF80A0001A801F012F83F
:100FD00008208DF8000001208DF8010003208DF815
:100FE000020001208DF80300684602F073FD002125
:100FF0000846FFF7A0FF05200BF0E2FA002000F002
:101000004DF80321002000F089F8002000F046F898
:1010100000210120FFF78FFF05200BF0D1FA0120FE
:1010200000F03CF80321012000F078F8012000F0E6
:1010300035F800210220FFF77EFF05200BF0C0FAF3
:10104000022000F02BF80321022000F067F80220B4
:1010500000F024F83EBD00009C6200200EB5042084
:10106000019000208DF808000C208DF80900002068
:101070008DF80A0001A800F0BDFF08208DF80000DF
:1010800001208DF8010003208DF8020000208DF86A
:101090000300684602F01EFD0EBD000070B5044658
:1010A000002517E02CB90421104801F022F900B9FD
:1010B00013E0012C05D120210D4801F01AF900B9E7
:1010C0000BE0022C05D14021094801F012F900B9CA
:1010D00003E06D1C07488542E4D300BF0548854204
:1010E00003D3214604A009F02DF870BD0010024082
:1010F0000018024000093D00414453313235365F4B
:101100005761697444524459282564292054696DF3
:1011100065204F7574202E2E2E0D0A0070B50446E2
:101120000D4624B1012C07D0022C0FD109E0042177
:10113000144801F0E7F809E00821124801F0E2F84C
:1011400004E010210F4801F0DDF800BF00BF294680
:101150002046FFF7D7FE24B1012C07D0022C0FD177
:1011600009E00421074801F0CFF809E0082105480B
:1011700001F0CAF804E01021024801F0C5F800BFF0
:1011800000BF70BD0018024070B504460D461646FB
:1011900024B1012C07D0022C0FD109E004211A48F8
:1011A00001F0B0F809E00821174801F0ABF804E0BD
:1011B0001021154801F0A6F800BF00BF45F050010E
:1011C0002046FFF79FFE00212046FFF79BFEFFF71A
:1011D00089FD31462046FFF795FE24B1012C07D04A
:1011E000022C0FD109E00421074801F08DF809E035
:1011F0000821054801F088F804E01021024801F0B8
:1012000083F800BF00BF70BD001802401FB56846DC
:1012100006F0C4F8019804B010BD00BFFEE700005E
:101220002DE9F04107460E46144657201849096833
:101230000870AB201649096848703C2014490968B9
:10124000887013490968CE70301211490968087115
:10125000052008F06BF910F027F8804605460CB120
:101260000020208013E045461E2D0DD1384600F0A9
:10127000D2F805463D2000F096F880462F4434B160
:1012800020882844208002E02846BDE8F081EAE773
:10129000A800002010B5302010F01AF810F004F863
:1012A0000446204610BD10B504462146362000F005
:1012B0006CF810BD10B5044614B1204600F094F847
:1012C000342000F070F810BD70B50646304600F0CE
:1012D00074F8054685B12946304600F024F80446E6
:1012E000412C09D0142C01D1432070BD422C01D1D6
:1012F000B320FAE72046F8E77019FFF7DBFFF4E7C1
:1013000010B50446204600F06FF820785C2802D023
:1013100020782F2803D10021642000F091F832209A
:1013200000F041F810BD2DE9F04105460F460026BA
:10133000012429E001E0601CC4B2285D5C2805D0CE
:10134000285D2F2802D0285D0028F4D1285D10B137
:10135000601CC4B200E00024A819FFF7D1FF0646C4
:1013600084B1BC420ED0412E0AD0142E02D14320AB
:10137000BDE8F081422E01D1B320F9E73046F7E70E
:10138000264601E03046F3E7D4E770B505460C4643
:1013900028460FF09DFF20460FF0AEFF0FF084FFB0
:1013A0000646304670BD70B5044620460FF090FFEB
:1013B0000FF07AFF0546284670BD0246114600E050
:1013C000491C08780028FBD100E0491E08785C28F9
:1013D00004D008782F2801D09142F6D1914200D054
:1013E000491C881AC0B2704770B505462F200FF00F
:1013F0006FFF2C7820460FF07FFF09E06D1C2C78E2
:101400005C2C01D02F2C00D1002420460FF074FF5B
:10141000002CF3D170BD70B504462D200FF058FF9D
:101420000FF042FF0646054646B100BF20780FF098
:1014300063FF641C701EC0B20600F7D1284670BD61
:1014400070B505460C460D200FF042FF28460FF000
:1014500053FFE0B20FF050FFC4F307200FF04CFF32
:10146000C4F307400FF048FF200E0FF045FF70BD9A
:1014700010B5024808F012FD10BD000080841E0067
:1014800010B500F01FF800F019F810BD10B50024D9
:1014900000BF00BFFEF7ACFE044600BF00BF102136
:1014A000054802F0CBF800BF00BF2046FEF7A4FEBF
:1014B00000BF00BF10BD0000D562002010B5FFF7CF
:1014C000E5FF10BD10B500200249086000F00AF8E1
:1014D00010BD0000B4000020014908607047000002
:1014E000B400002010B5FFF791FE044608480068DC
:1014F00040F08070064908600020064948600846B0
:10150000006840F0010008602046FFF7E5FF10BDCD
:10151000FCED00E0001000E0014948687047000061
:10152000001000E070B500254FF4803404E0802006
:1015300006F028F800B103E02000A4F10104F6D180
:1015400000BF0CB9032070BD40F2FF5005F0F0FF62
:101550002846F8E770B5044605E01648056805F02A
:10156000450000B100E0F8E700BF042006F00AF8EB
:1015700020B1042005F0DCFF032070BD012006F03F
:1015800001F820B1012005F0D3FF0120F5E709485B
:1015900024380068A04201D01020EEE740F2FF504E
:1015A00005F0C6FF03482038006808210840C0B293
:1015B000E3E70000342C014070B500264FF480357D
:1015C00005E01148046804F0450000B103E028007C
:1015D000A5F10105F5D100BF15B104F0040028B153
:1015E0000326042005F0A4FF304670BD012005F05D
:1015F000C9FF18B10126012005F09AFF40F2FF5003
:1016000005F096FF3046F0E7342C014010B505E0B8
:101610000B48046804F0450000B100E0F8E700BFA3
:10162000042005F0AFFF20B1042005F081FF032066
:1016300010BD40F2FF5005F07BFF0020F8E70000EE
:10164000342C01402DE9F04105460E464FF00008CC
:1016500005E02048076807F0450000B100E0F8E722
:1016600000BF042005F08EFF28B1042005F060FFC4
:101670000320BDE8F081012005F084FF20B10120A6
:1016800005F056FF0120F4E7124824380068A8420C
:1016900001D01020EDE740F2FF5005F049FF0D4862
:1016A0002038046804F4604018B9200C30804046AB
:1016B000DFE704F4005008B11320DAE704F48040B7
:1016C00008B11020D5E704F4004008B10F20D0E79E
:1016D0004046CEE7342C014070B500264FF48035EB
:1016E00005E00F48046804F0450000B103E028005D
:1016F000A5F10105F5D100BF15B104F0040028B132
:101700000326042005F014FF304670BD04F04000AD
:1017100018B10026402005F00BFF3046F5E7000029
:10172000342C01400246094B9A4201D2084801E09C
:101730000648103801F000531BB1064B0B40C36044
:1017400002E0044B0B4083607047000010640240CD
:10175000006002407D0F7D0F21B1026842F001025E
:10176000026003E0026822F001020260704700009C
:10177000016821F001010160002101604160816088
:10178000C1600161212141614A49884204D13D2162
:10179000484A103A91608CE046491831884205D198
:1017A0004FF47461434A103A916082E0414930310C
:1017B000884205D14FF474113E4A103A916078E0A6
:1017C0003C494831884205D14FF07461394A103A9A
:1017D00091606EE037496031884204D13649354A1C
:1017E000103AD16065E033497831884204D13349F9
:1017F000304A103AD1605CE02E499031884204D1E1
:101800002F492C4A103AD16053E02A49A831884226
:1018100005D14FF03D51274A103AD16049E029499E
:10182000884204D13D21274A083A116041E0254908
:101830001831884205D14FF47461224A083A116088
:1018400037E020493031884205D14FF474111D4AE8
:10185000083A11602DE01B494831884205D14FF00C
:101860007461184A083A116023E0164960318842D1
:1018700004D11149134A121F11601AE0114978313D
:10188000884204D10D490F4A121F116011E00D4921
:101890009031884204D10A490A4A121F116008E0B7
:1018A0000849A831884204D14FF03D51054A121F22
:1018B00011607047106002403D000020400F002082
:1018C00000003D201064024021B1026842F0200275
:1018D000026003E0026822F02002026070470146C5
:1018E00000200A6802F001020AB1012000E0002095
:1018F0007047000030B503460A46002000240B4D17
:10190000AB4201D20A4901E00849103902F0005502
:101910000DB14C6800E00C68064D2C4004EA02054D
:101920000DB1012000E0002030BD00001064024035
:10193000006002407D0F7D0F10B500220268134B3E
:101940001A40CC680B6823434C6923438C692343BA
:10195000CC6923430C6A23434C6A23438C6A234398
:101960004C6B23438C6B23431A430260426922F081
:101970000702D1E90B3423431A4342610B694360E8
:101980004B6883608B68C36010BD00003F801CF013
:101990004160704770B504460D4600212046FFF7B0
:1019A000DBFE00BF2046FFF79AFF0028FAD1294648
:1019B0002046FFF7EDFF01212046FFF7CDFE70BD69
:1019C0002DE9F04190B004460D4617461E46DDF85D
:1019D00058801B48844204D90121880505F08EFCFB
:1019E00003E00121480505F089FC2046FFF7C0FE11
:1019F00000BF2046FFF773FF0028FAD10195029738
:101A0000039640200490CDF81480002006904FF4F7
:101A1000806007900020089009900A904FF4803071
:101A20000B9000200C9003200D9000200E900F9042
:101A300001A92046FFF780FF10B0BDE8F08100004B
:101A4000006402407047000010B50446214610A013
:101A500008F078FB240300F027F900F0BFF800201D
:101A60000D490860202007F0A3FBC4F3074007F0EE
:101A70009FFBC4F3072007F09BFBE0B207F098FB45
:101A800001200649C1F8B80200F0A8F810BD000016
:101A900066653A25780D0A00B882404200804042CF
:101AA0001CB50121022005F029FC0121402005F090
:101AB00025FC4FF48040009001208DF804000020A8
:101AC0008DF8060003208DF8050001208DF8070031
:101AD00069460D4800F0A2FB8020009069460B4843
:101AE00000F09CFB8021094800F00EFC0120084911
:101AF000086007F0F3FA382007F076FB00F034F8BE
:101B0000044908801CBD0000000402400018024087
:101B1000B8824042980000202DE9F04106460C466C
:101B2000174600200F490860032007F041FBC4F36B
:101B3000074007F03DFBC4F3072007F039FBE0B294
:101B400007F036FB002505E0FF2007F031FB70555C
:101B5000681C85B2BD42F7DB012002490860BDE880
:101B6000F0810000B882404210B5002400200E49E8
:101B70000860902007F01CFB002007F019FB0020F4
:101B800007F016FB002007F013FBFF2007F010FB07
:101B900044EA0024FF2007F00BFB04430120034923
:101BA000C1F8B802204610BDB882404200804042D1
:101BB00010B50024002007490860052007F0F8FA56
:101BC000FF2007F0F5FA044601200349C1F8B802E6
:101BD000204610BDB88240420080404210B500BF90
:101BE000FFF7E6FF00F001000028F9D110BD00006A
:101BF0002DE9F05F81460F461646DFF8A8B04FEAA0
:101C00001738C7F30B0ACAF58054A64200DC3446E5
:101C100044E04FEA08314FF480525846FFF77CFF0A
:101C2000002508E00AEB05001BF80000FF2800D0A3
:101C300003E0681C85B2A542F4DB00BFA54216DABA
:101C40004046FFF701FF002507E019F8050005EB06
:101C50000A010BF80100681C85B2A542F5DB4FEACA
:101C600008314FF48052584600F02EF804E0224626
:101C70003946484600F028F8A64200D10FE008F1A6
:101C800001084FF0000AA1442744301B86B2B6F584
:101C9000805F02DD4FF4805400E03446B9E700BFB6
:101CA000BDE8F09FC02E002010B500200449086058
:101CB000062007F07DFA01200249C1F8B80210BDE4
:101CC000B8824042008040422DE9F04107460E466E
:101CD0001446F0B2C0F58075AC4200DC254612E037
:101CE0002A463146384600F013F8AC4200D10BE0EA
:101CF0002F442E44601B84B2B4F5807F02DD4FF484
:101D0000807500E02546EBE700BFBDE8F0810000EC
:101D10002DE9F04106460C461746FFF7C5FF0020A7
:101D20000F490860022007F043FAC4F3074007F0A8
:101D30003FFAC4F3072007F03BFAE0B207F038FAA5
:101D4000002504E0705D07F033FA681C85B2BD42DF
:101D5000F8DB012002490860FFF740FFBDE8F08191
:101D6000B88240421CB5012000F038F901287DD12D
:101D70004449454800F0CAFA4448007800B30020BE
:101D80004249087042A008F0DDF946A20321002074
:101D900001F0F8FF01A9484804F076FD01A9474881
:101DA00004F072FD4648007818B901A9454804F0CE
:101DB0006BFD4348007818B101A9434804F064FD65
:101DC0004248007820B141480078401E3F490870E1
:101DD0003E480078002821D13D48008840F2F311A8
:101DE00088421BD03A480088B0F5FA7F16D03948AF
:101DF00002883748018838A008F0A4F93CA008F010
:101E0000A1F92148B0F8070000901F488379427972
:101E1000007900F108013BA008F094F900202C495A
:101E200008802C49088080213C4800F06BFA002192
:101E30003B4807F00CFE144880780C2819DC124847
:101E4000008840F2E271884213DB0F48C0781F28F7
:101E50000FDC0D48007918280BDC0121304807F011
:101E6000D0FD0AF0EDFC01A92E4800E005E004F0E9
:101E70000BFD8021294800F047FA012000F0A8F866
:101E80001CBD000038250020DE2B0020850000202E
:101E9000475053B6A8CEBBB3C9B9A6A3A10D0A0D2E
:101EA0000A00000020202020475053204F4B2020C4
:101EB0002020202000000000740400203C0A0020A4
:101EC00000000020C41200204C1B002086000020CF
:101ED0008000002082000020636F756E743A202518
:101EE00064206578636F756E743A25640D0A00008E
:101EF000CAFDBEDDB2C9BCAFB3F6B4EDA3A10D0AF5
:101F00000000000047505354696D653A25643A2536
:101F1000643A25643A25640D0A0D0A00001802404F
:101F2000000C0040840700200EB514200AF06CFE5F
:101F3000022000F053F8012824D11448007808B991
:101F4000012000E0002011490870022000900020CC
:101F50008DF804000C208DF8050000208DF8060097
:101F6000684600F047F807208DF8080004208DF837
:101F7000090003208DF80A0000208DF80B0002A84C
:101F800001F0A8FD022000F023F80EBD00000020A3
:101F900008B5042000F022F8A0B1042000F018F8E1
:101FA0000120FFF77BF80220FFF778F80648008849
:101FB000401C054908806946044804F065FC04207B
:101FC00000F006F808BD0000820000207404002024
:101FD0000149086070470000143C014001460020A0
:101FE000034A12680A400AB1012000E0002070474D
:101FF000143C0140002123498279002A3AD00A4644
:10200000126803689A430B461A600A1D1268036837
:102010009A430B1D1A60027911440A6803681A4337
:102020000A60184A0832126803689A43154B08334D
:102030001A601A1D126803689A43124B0C331A6017
:102040004279102A0ED11A1F126803681A430D4BE9
:1020500008331A601A1D126803681A43094B0C33BF
:102060001A600DE00749427911440A6803681A436F
:102070000A6005E0027911440A6803689A430A601D
:1020800070470000003C01402DE9FC4107460D4629
:102090000026002400200090019008205B49086081
:1020A00010204860402088600020C8604FF48060A5
:1020B0000861084605F0B2FA1020FFF74BFA044613
:1020C00014B12046BDE8FC815148008800044F4906
:1020D000086037204860402088600020C8604FF4C6
:1020E00080600861084605F099FA3720FFF732FA58
:1020F00004460CB12046E5E74FF0FF304549086043
:1021000008204860302088600220C86000200861F4
:1021100001204861084605F01BFA00203B49086091
:1021200033204860402088600020C8604FF4806001
:102130000861084605F072FA3320FFF70BFA0446EF
:102140000CB12046BEE70CE04FF4001005F01AFA7F
:1021500038B1314800684DF82600761C022E00D3B5
:1021600007E02D484C38006840F22A6108400028FA
:10217000EAD000BF082005F005FA20B1082005F0DC
:10218000D7F904209EE7022005F0FCF920B10220D7
:1021900005F0CEF9022095E7202005F0F3F920B1F3
:1021A000202005F0C5F906208CE74FF4007005F0FB
:1021B000E9F928B14FF4007005F0BAF9072081E77A
:1021C00040F2FF5005F0B4F900980006009901F4C0
:1021D0007F4140EA0120009901F47F0140EA11208B
:1021E000009940EA1160686001980006019901F4C5
:1021F0007F4140EA0120019901F47F0140EA11206A
:10220000019940EA1160286020465BE7182C002005
:102210008C0000202C2C0020802C0140F0B50A46B8
:1022200000210023002400BF3DE0012505FA01F351
:10223000156805EA03049C4234D105684F00032663
:10224000BE40B543056015794E00B540066835437C
:1022500005601579012D02D01579022D16D18568FA
:102260004F000326BE40B543856055794E00B5400A
:10227000866835438560456801268E40B5434560D4
:10228000456896798E40B6B235434560C5684F00C3
:102290000326BE40B543C560D5794E00B540C6683B
:1022A0003543C560491C1029BFD3F0BDF0B50023EC
:1022B00000244D07ED0E02FA05F3CE1000F12005C3
:1022C00055F826504E07F70E0F26BE40B543CF10E7
:1022D00000F1200646F82750CE1000F1200555F8F1
:1022E000265045EA0304CE1000F1200545F82640AB
:1022F000F0BD0246002013690B400BB1012000E045
:1023000000207047418370470183704770B50446D1
:102310000D462946204601F029FA2946204601F0BB
:102320003FFA70BD10B50DF0DFFE044634B1FD2C50
:1023300036D0FE2C2BD0FF2C3FD11FE021A007F080
:1023400001FF25A20321002001F01CFD2748007891
:10235000401C26490870084600780A280DDD24A094
:1023600007F0F0FE29A20321002001F00BFD4FF43D
:10237000FA600AF049FC0DF00BFF1FE028A007F0FF
:10238000E1FE2FA20321002001F0FCFC16E031A0A9
:1023900007F0D8FE33A20321002001F0F3FC0DE08A
:1023A00035A007F0CFFE384938A007F0CBFE3CA29D
:1023B0000321002001F0E6FC00BF00BF00BF204663
:1023C00010BD000047534DC4A3BFE9D7D4BCECB344
:1023D000C9B9A60D0A000000202020202034472083
:1023E0004F4B202020202020000000009E000020D5
:1023F0003447C1ACBDD3CAA7B0DCA3ACD7BCB1B81D
:10240000D6D8C6F42E2E2E0D0A0D0A0020344720F1
:102410006661696C7572652C52535420000000008F
:10242000D3EB47534DC4A3BFE9CEB4CDA8D1B6B3C7
:10243000C9B9A6A3ACC7EBB5C8B4FD0D0A0000002E
:10244000436F6E6E656374696E6720746F203447E6
:1024500000000000C3BBBCECB2E2B5BD53494DBFA8
:10246000A80D0A0020204E6F2053494D2063617251
:102470006420202000000000D7A2B2E1CDF8C2E71E
:10248000D6D02E2E2E0D0A009A000020B5B1C7B06E
:10249000D0C5BAC5D6B5A3BA25730D0A0000000091
:1024A00020204E6574776F726B696E672E2E2E201A
:1024B0000000000000BFFEE74CF6CC400149086078
:1024C000704700000030004010B500F013F810BD58
:1024D00070B505460C4645F2555000F01FF82846E9
:1024E00000F010F8204600F013F800F003F8FFF7B2
:1024F000E3FF70BD4AF6AA2001490860704700005A
:102500000030004001494860704700000030004042
:1025100001498860704700000030004001490860B0
:1025200070470000003000401CB5044600200190B8
:102530000090224800880004214908600D2048606E
:10254000402088600020C8604FF480600861084621
:1025500005F064F81B480068009002E01948006824
:102560000090009800F045000028F7D0012005F009
:1025700009F820B1012004F0DBFF01201CBD04207C
:1025800005F000F820B1042004F0D2FF0320F5E7A5
:102590000C48243800680D2801D01020EEE740F2E6
:1025A000FF5004F0C5FF07482038006801900198EB
:1025B000C0F3432020700020E0E700008C000020E2
:1025C000182C0020342C014001B5CAB04A98D0F82C
:1025D0000E001D90FEF748F89FEDFE0B53EC102BFC
:1025E000CDE91E019DED1E0B51EC100BFDF7BCFF5C
:1025F000499148904A98D0F809001D90FEF734F8A8
:102600009FEDF40B53EC102BCDE91E019DED1E0B3D
:1026100051EC100BFDF7A8FF479146909FEDEF0B93
:102620008DED440B9FEDEF0B8DED420B9FEDEF0B0E
:102630008DED400B9FEDEF1B9DED420B07F034FE3F
:102640008DED1A0B9FEDEB1B9DED440B07F02CFE5F
:102650008DED180B9DED1A0B53EC102B9DED180B07
:1026600051EC100BFDF708FFCDE91C019DED1C0B93
:1026700008F09AFC8DED1E0B9DED440B53EC102BD6
:102680009DED1E0B51EC100BFDF76EFFCDE93A01ED
:102690009FEDD81B9DED420B07F006FE8DED1A0B4A
:1026A0009FEDD41B9DED440B07F0FEFD8DED180B47
:1026B0009DED1A0B53EC102B9DED180B51EC100BEC
:1026C000FDF7DAFECDE91C019DED1C0B08F06CFC5A
:1026D0008DED1E0B9DED420B53EC102B9DED1E0B53
:1026E00051EC100BFDF740FFCDE938019DED400B9B
:1026F00053EC102B9DED480B51EC100BFDF7BCFE7D
:10270000CDE936019FEDBD0B53EC102B9DED460B33
:1027100051EC100BFDF7B6FE9FEDBA0B53EC102BEE
:10272000CDE91E019DED1E0B51EC100BFDF71CFFBA
:10273000CDE934019FEDB10B53EC102B9DED480B0F
:1027400051EC100BFDF79EFE9FEDAE0B53EC102BE2
:10275000CDE91E019DED1E0B51EC100BFDF704FFA2
:10276000CDE932019FEDA50B53EC102B9DED360BFF
:1027700051EC100BFDF786FE9FEDA20B53EC102BD6
:10278000CDE91E019DED1E0B51EC100BFDF7ECFE8B
:10279000CDE936019FED9D1B9DED3A0B07F084FDC1
:1027A0008DED1A0B9FED9B0B53EC102B9DED1A0B2F
:1027B00051EC100BFDF766FE9FED981BCDE91E0155
:1027C0009DED3A0B07F070FD8DED160B9FED950B0F
:1027D00053EC102B9DED160B51EC100BFDF752FE38
:1027E0009FED921BCDE91A019DED3A0B07F05CFDC0
:1027F0008DED120B9FED8F0B53EC102B9DED120BFB
:1028000051EC100BFDF73EFE9FED7A1BCDE9160152
:102810009DED3A0B07F048FD8DED100B9FED870BFA
:1028200053EC102B9DED100B51EC100BFDF72AFE15
:102830009FED840B53EC102BCDE912019DED120B93
:1028400051EC100BFDF777FDCDE914019DED160B52
:1028500053EC102B9DED140B51EC100BFDF76BFDA1
:10286000CDE918019DED1A0B53EC102B9DED180BC3
:1028700051EC100BFDF75FFDCDE91C019DED1E0B2A
:1028800053EC102B9DED1C0B51EC100BFDF753FD81
:10289000CDE930019FED5D1B9DED3A0B07F004FD86
:1028A0008DED160B9FED690B53EC102B9DED160B68
:1028B00051EC100BFDF7E6FD9FED581BCDE91A0119
:1028C0009DED3A0B07F0F0FC8DED120B9FED610BC7
:1028D00053EC102B9DED120B51EC100BFDF7D2FDBC
:1028E0009FED521BCDE916019DED3A0B07F0DCFC84
:1028F0008DED0E0B9FED590B53EC102B9DED0E0B38
:1029000051EC100BFDF7BEFD9FED3A1BCDE9120116
:102910009DED3A0B07F0C8FC8DED0E0B9FED470BBC
:1029200053EC102B9DED0E0B51EC100BFDF7AAFD97
:10293000CDE910019DED120B53EC102B9DED100B0A
:1029400051EC100BFDF7F7FCCDE914019DED160BD2
:1029500053EC102B9DED140B51EC100BFDF7EBFC21
:10296000CDE918019DED1A0B53EC102B9DED180BC2
:1029700051EC100BFDF7DFFCCDE91C019DED1C0BAC
:1029800051EC100B81F000419FED1A0B53EC102B12
:10299000CDE91E019DED1E0B51EC100BFDF7E4FD82
:1029A000CDE92E019FED191B9DED3A0B07F07CFC44
:1029B0008DED180B9FED2B0B53EC102B9DED180B91
:1029C00051EC100BFDF75EFD9FED141BCDE91C01D2
:1029D0004CE0000000000000006AF84000000040E9
:1029E000C1545841DE9333C1DF3F5841000000001D
:1029F00000405D40000000000000004002B4365876
:102A0000FB2109400000000000806640000000003B
:102A100000002040000000008088E53F000000002A
:102A2000000018400000000000E0E53F000000004A
:102A300000001040000000000080E63F00000000A1
:102A40000000E83F000000000000F03F0000000030
:102A5000003AF13F000000000068F03F0000000075
:102A60000000EE3F00000000003AE13F9DED3A0B10
:102A700007F01AFC8DED140B9FEDFD0B53EC102BA2
:102A80009DED140B51EC100BFDF7FCFC1FED191B19
:102A9000CDE918019DED3A0B07F006FC8DED140B06
:102AA0009FEDF50B53EC102B9DED140B51EC100B1F
:102AB000FDF7E8FCCDE916019DED180B53EC102B4A
:102AC0009DED160B51EC100BFDF735FCCDE91A010D
:102AD0009DED1C0B53EC102B9DED1A0B51EC100BC4
:102AE000FDF729FC1FED2F0B53EC102BCDE91E0138
:102AF0009DED1E0B51EC100BFDF736FDCDE92C01C1
:102B00001FED3E1B9DED3A0B07F0CEFB8DED160B36
:102B10009FEDDB0B53EC102B9DED160B51EC100BC6
:102B2000FDF7B0FC1FED431BCDE91A019DED3A0BFB
:102B300007F0BAFB8DED160B9FEDD30B53EC102B6A
:102B40009DED160B51EC100BFDF79CFCCDE9180127
:102B50009DED1A0B53EC102B9DED180B51EC100B47
:102B6000FDF7E9FBCDE91C019DED1C0B51EC100BB1
:102B700081F000411FED570B53EC102BCDE91E01E6
:102B80009DED1E0B51EC100BFDF7EEFCCDE92A017B
:102B90001FED621B9DED3A0B07F086FB8DED1C0BC4
:102BA0009FEDBB0B53EC102B9DED1C0B51EC100B50
:102BB000FDF768FC1FED6B0B53EC102BCDE91E01EC
:102BC0009DED1E0B51EC100BFDF7CEFCCDE928015D
:102BD0009DED340B53EC102B1FED740B51EC100BCF
:102BE000FDF750FCCDE914019DED140B08F078F9C8
:102BF0008DED160B9DED280B53EC102B9DED160B58
:102C000051EC100BFDF73EFCCDE91A019DED340BA4
:102C100053EC102B1FED7F0B51EC100BFDF732FC2A
:102C2000CDE910019DED100B08F05AF98DED120B56
:102C30009DED2A0B53EC102B9DED120B51EC100B5C
:102C4000FDF720FCCDE916019DED340B53EC102B64
:102C50001FED8A0B51EC100BFDF714FCCDE90C01B4
:102C60009DED0C0B08F03CF98DED0E0B9DED2C0B42
:102C700053EC102B9DED0E0B51EC100BFDF702FCED
:102C8000CDE912019DED340B53EC102B1FEDA70B7A
:102C900051EC100BFDF7F6FBCDE908019DED080B9B
:102CA00008F01EF98DED0A0B9DED2E0B53EC102B49
:102CB0009DED0A0B51EC100BFDF7E4FBCDE90E0185
:102CC0009DED340B53EC102B9DED300B51EC100BA4
:102CD000FDF7D8FBCDE90C019DED0E0B53EC102B4D
:102CE0009DED0C0B51EC100BFDF725FBCDE9100110
:102CF0009DED120B53EC102B9DED100B51EC100BB6
:102D0000FDF719FBCDE914019DED160B53EC102BCB
:102D10009DED140B51EC100BFDF70DFBCDE91801E7
:102D20009DED1A0B53EC102B9DED180B51EC100B75
:102D3000FDF701FB1FEDD11BCDE91E019DED3A0B07
:102D400007F0B2FA8DED180B1FEDC20B53EC102BF0
:102D50009DED180B51EC100BFDF791FBCDE91A011D
:102D60009DED440B53EC102B9DED1A0B51EC100B09
:102D7000FDF788FBCDE91C019DED1E0B53EC102BDC
:102D80009DED1C0B51EC100BFDF77CFBCDE92601F2
:102D90009DED340B08F048F98DED240B9DED340BBF
:102DA00007F01EFA8DED1E0B9DED380B53EC102B2A
:102DB0009DED1E0B51EC100BFDF764FBCDE92201DC
:102DC0009DED340B08F08CF88DED140B1FEDF71B07
:102DD0009DED140B07F068FA8DED180B1FEDFB1B32
:102DE0009DED3A0B07F060FA8DED160B9DED180B7B
:102DF00053EC102B9DED160B51EC100BFDF742FB25
:102E00001FEDF00B53EC102BCDE91A019DED1A0BC1
:102E100051EC100BFDF733FBCDE91C019DED1C0BB4
:102E200008F0C2F88DED1E0B9DED1E0B53EC102B20
:102E30009DED440B51EC100BFDF796FBCDE9200105
:102E40009FED151B9DED360B07F02EFA8DED1A0B3D
:102E50009DED340B07F0C4F98DED120B9FED0E1BA9
:102E60009DED120B07F020FA8DED160B18E0000017
:102E7000000000000040DA3F000000000000CE3FEC
:102E80000000000000B0C33F000000000080B13F20
:102E90000000000000B0933F000000000000184058
:102EA0009FEDFD1B9DED240B07F0FEF98DED0A0B48
:102EB0009FEDF91B9DED220B07F0F6F98DED060B4A
:102EC0009FEDF70B53EC102B9DED060B51EC100B07
:102ED000FDF7D8FACDE908019DED0A0B53EC102B54
:102EE0009DED080B51EC100BFDF7CCFA9FEDEA1BA2
:102EF000CDE90E019DED220B07F0D6F98DED060B05
:102F00009FEDE90B53EC102B9DED060B51EC100BD4
:102F1000FDF7B8FA9FEDE61BCDE90A019DED240B04
:102F200007F0C2F98DED060B9FEDDB1B9DED240B29
:102F300007F0BAF98DED000B9FEDDF0B53EC102B72
:102F40009DED000B51EC100BFDF79CFA9FEDDC0B97
:102F500053EC102BCDE902019DED020B51EC100B4F
:102F6000FDF78DFACDE904019DED060B53EC102B16
:102F70009DED040B51EC100BFDF7DDF9CDE90801D7
:102F80009DED0A0B53EC102B9DED080B51EC100B33
:102F9000FDF7D1F9CDE90C019DED0E0B53EC102B93
:102FA0009DED0C0B51EC100BFDF766FACDE912010B
:102FB0009DED200B53EC102B9FEDC30B51EC100B30
:102FC000FDF760FACDE90E019DED240B53EC102BBB
:102FD0009DED0E0B51EC100BFDF754FACDE91001ED
:102FE0009DED120B53EC102B9DED100B51EC100BC3
:102FF000FDF748FACDE914019DED160B53EC102BAB
:103000009DED140B51EC100BFDF73CFACDE91801C6
:103010009DED1A0B53EC102B9DED180B51EC100B82
:10302000FDF730FA9FEDA21BCDE91E019DED360B99
:1030300007F03AF98DED160B9DED340B07F0D0F843
:103040008DED0E0B9FED9A1B9DED0E0B07F02CF9ED
:103050008DED120B9FED961B9DED220B07F024F9D1
:103060008DED060B9FED920B53EC102B9DED060B97
:1030700051EC100BFDF706FA9FED871BCDE90A0115
:103080009DED220B07F010F98DED020B9FED900BDB
:1030900053EC102B9DED020B51EC100BFDF7F2F9E8
:1030A0009FED7D1BCDE906019DED240B07F0FCF89B
:1030B0008DED020B9FED880B53EC102B9DED020B59
:1030C00051EC100BFDF7DBF9CDE904019DED060B8A
:1030D00053EC102B9DED040B51EC100BFDF72BF96D
:1030E000CDE908019DED0A0B53EC102B9DED080B6B
:1030F00051EC100BFDF71FF9CDE90E019DED200BF2
:1031000053EC102B9FED760B51EC100BFDF7BAF939
:10311000CDE90A019DED240B53EC102B9DED0A0B1C
:1031200051EC100BFDF7AEF9CDE90C019DED0E0B46
:1031300053EC102B9DED0C0B51EC100BFDF7A2F98D
:10314000CDE910019DED120B53EC102B9DED100BF2
:1031500051EC100BFDF796F9CDE914019DED160B1E
:1031600053EC102B9DED140B51EC100BFDF78AF96D
:103170009FED491BCDE91A019DED360B07F094F840
:103180008DED140B9DED340B07F02AF88DED0C0B33
:103190009FED411B9DED0C0B07F086F88DED100B9C
:1031A0009DED200B53EC102B9FED4F0B51EC100BB2
:1031B000FDF768F9CDE90C019DED240B53EC102BC4
:1031C0009DED0C0B51EC100BFDF75CF9CDE90E01F8
:1031D0009DED100B53EC102B9DED0E0B51EC100BD5
:1031E000FDF750F9CDE912019DED140B53EC102BB6
:1031F0009DED120B51EC100BFDF744F9CDE91601D2
:103200009DED260B53EC102B9DED160B51EC100B86
:10321000FDF791F8CDE918019DED1A0B53EC102B39
:103220009DED180B51EC100BFDF785F8CDE91C0155
:103230009DED1E0B53EC102B9DED1C0B51EC100B58
:10324000FDF779F8CDE93E019FED231B9DED360B8F
:1032500007F02AF88DED1A0B9DED340B06F0C0FF38
:103260008DED120B9FED1C1B9DED120B07F01CF852
:103270008DED160B9FED081B9DED240B07F014F848
:103280008DED0A0B9FED041B9DED220B07F00CF852
:103290008DED060B2CE00000000000000000004057
:1032A0000000000000A074400000000000E070403A
:1032B00000000000000010400000000000004D4031
:1032C0000000000000804E40176CC1166CC1563FD4
:1032D0000000000000002240000000000000144038
:1032E000555555555555A53F000000000000E03FDD
:1032F0001FED0F0B53EC102B9DED060B51EC100B3B
:10330000FDF7C0F8CDE908019DED0A0B53EC102B39
:103310009DED080B51EC100BFDF7B4F81FED221BCF
:10332000CDE90E019DED220B06F0BEFF8DED060BE3
:103330009FEDB10B53EC102B9DED060B51EC100BD8
:10334000FDF7A0F81FED261BCDE90A019DED240B2A
:1033500006F0AAFF8DED060B1FED311B9DED240B32
:1033600006F0A2FF8DED000B9FEDA50B53EC102B8B
:103370009DED000B51EC100BFDF784F81FED2A0BAF
:1033800053EC102BCDE902019DED020B51EC100B1B
:10339000FDF775F8CDE904019DED060B53EC102BFC
:1033A0009DED040B51EC100BFCF7C5FFCDE90801B6
:1033B0009DED0A0B53EC102B9DED080B51EC100BFF
:1033C000FCF7B9FFCDE90C019DED0E0B53EC102B72
:1033D0009DED0C0B51EC100BFDF74EF8CDE91201F1
:1033E0009DED200B53EC102B9FED870B51EC100B38
:1033F000FDF748F8CDE910019DED120B53EC102BB1
:103400009DED100B51EC100BFDF73CF8CDE91401CC
:103410009DED160B53EC102B9DED140B51EC100B86
:10342000FDF730F8CDE918019DED1A0B53EC102B88
:103430009DED180B51EC100BFDF724F89FED741B5C
:10344000CDE91E019DED360B06F02EFF8DED160B1E
:103450009DED340B06F0C4FE8DED0E0B9FED6C1B45
:103460009DED0E0B06F020FF8DED120B1FED761B70
:103470009DED220B06F018FF8DED0A0B1FED7A1B58
:103480009DED240B06F010FF8DED060B9FED620BFA
:1034900053EC102B9DED060B51EC100BFCF7EFFFDE
:1034A000CDE908019DED0A0B53EC102B9DED080BA7
:1034B00051EC100BFCF73FFFCDE90E019DED200B09
:1034C00053EC102B9FED560B51EC100BFCF7DAFF71
:1034D000CDE90C019DED0E0B53EC102B9DED0C0B6B
:1034E00051EC100BFCF7CEFFCDE910019DED120B56
:1034F00053EC102B9DED100B51EC100BFCF7C2FFA1
:10350000CDE914019DED160B53EC102B9DED140B22
:1035100051EC100BFCF7B6FFCDE91A019DED340B11
:1035200006F05EFE8DED140B9DED200B53EC102B81
:103530009DED140B51EC100BFCF7A4FFCDE9160127
:103540009DED360B53EC102B9DED160B51EC100B33
:10355000FCF798FFCDE918019DED1A0B53EC102BE9
:103560009DED180B51EC100BFCF7E5FECDE91C01AD
:103570009DED1E0B53EC102B9DED1C0B51EC100B15
:10358000FCF7D9FECDE93C019FED270B53EC102B46
:103590009DED3C0B51EC100BFCF7CDFECDE93C0151
:1035A0009FED230B53EC102B9DED3E0B51EC100BBC
:1035B000FCF768FFCDE91E019DED1E0B51EC100BD1
:1035C000FDF772F84A99C1F813009FED190B53ECFF
:1035D000102B9DED3C0B51EC100BFCF753FFCDE98C
:1035E0001E019DED1E0B51EC100BFDF75DF84A9985
:1035F000C1F817004BB000BD0000000000002C40D7
:103600000000000000003240111111111111813F22
:103610000000000000000840000000000000F03F33
:10362000555555555555C53F0000000080841E4135
:1036300000000000006AF84000BFFEE730B5054614
:103640000C4622460021284600F026F830BD000036
:103650000D480E4901600146416000218160C16052
:10366000016141618161C16101620163C1624162C5
:1036700007498163C1634FF40061016441640146FD
:10368000044A116070470000E8620020484541503C
:1036900030630020B80000202DE9F04105460B46BC
:1036A00094460027002402E03F021F43641C042CC0
:1036B000FAD3604605F00306294646B1344603E0D6
:1036C00001F8013B401E641C08B1042CF8D30A46E3
:1036D00001E080C2001F0428FBD2114602E001F87D
:1036E000013B401E0028FAD1BDE8F0810EB5012152
:1036F000880303F033FE0021084605F0D7FE0620BC
:103700008DF8080000208DF8090001208DF80A00CE
:103710008DF80B0002A800F0DDF9012000900020D8
:103720008DF8040008208DF8050001208DF80600B2
:103730006846FEF75FFC0EBD0246134610E01078A7
:103740002A2805D01078202802DB10787A2801DD9D
:10375000FF20704710782C2801D1481EC1B2521C9E
:103760000029ECD1D01AC0B2F3E70000F8B5044646
:103770000D4609A12846FCF7C5FD0646092130463D
:10378000FFF7DAFF0746FF2F05D0F019694600F072
:103790002AF9C4F81B00F8BD24474E4747410000F2
:1037A0002DE9F0472DED028B82B00446884685A1B5
:1037B0004046FCF7A7FD074601213846FFF7BCFF4E
:1037C0000546FF2D2FD0781901A900F00CF982468B
:1037D0009DF804100A2000F0FBF8BAFBF0F6781907
:1037E00001A900F000F982469DF804100A2000F0BB
:1037F000EFF8BAFBF0F100FB11A942F21070B6FB32
:10380000F0F020716420B6FBF0F06421B0FBF1F21F
:1038100001FB120060716420B6FBF0F100FB116047
:10382000A071A4F8079003213846FFF785FF0546ED
:10383000FF2D42D0781901A900F0D5F806469DF871
:103840000400801CC1B20A2000F0C2F8B6FBF0F000
:1038500044F8090F9DF80400801CC1B20A2000F052
:10386000B7F8B6FBF0F100FB116000EE100AB8EEFD
:10387000408A05210A2000F0ABF82168484300EE99
:10388000100AF8EE400A9DF80400C0F10500C1B22C
:103890000A2000F09DF800EE100AB8EE400A20EE73
:1038A000080A9FED4A1AC0EE011A30EEA10ABCEEDA
:1038B000C00A10EE100A44F8090904213846FFF73F
:1038C0003BFF0546FF2D01D0785D6073052138462A
:1038D000FFF732FF0546FF2D44D0781901A900F00B
:1038E00082F806469DF80400801CC1B20A2000F050
:1038F0006FF8B6FBF0F044F80E0F9DF80400801C42
:10390000C1B20A2000F064F8B6FBF0F100FB1160D0
:1039100000EE100AB8EE400AB0EE408A05210A20F7
:1039200000F056F82168484300EE100AF8EE400A0D
:103930009DF80400C0F10500C1B20A2000F048F86B
:1039400000EE100AB8EE400A20EE080A9FED1F1A9A
:10395000C0EE011A30EEA10ABCEEC00A10EE100A49
:1039600044F80E0906213846FFF7E6FE0546FF2D0E
:1039700001D0785DA07409213846FFF7DDFE0546C9
:10398000FF2D1AD0781901A900F02DF8064642F251
:103990001070B6FBF0F0E0706420B6FBF0F064212C
:1039A000B0FBF1F201FB1200A0706420B6FBF0F155
:1039B00000FB116000F5FA60208002B0BDEC028BC4
:1039C000BDE8F08724474E524D430000000070428E
:1039D00010B50246012000E050430B00A1F10104A4
:1039E000E1B2F9D110BD2DE9F34F81B007463C4655
:1039F00000200090834681460026804628E02078FB
:103A00002D2802D148F00208641C20782C2802D00E
:103A100020782A2800D11CE020782E2803D148F0F5
:103A20000108641C09E02078392802DC207830285D
:103A300003DA4FF0000900260BE008F0010010B196
:103A4000701CC6B203E009F1010000F0FF09641C1C
:103A5000D5E700BF08F0020000B17F1C00250EE092
:103A6000A9F10100401BC1B20A20FFF7B1FF795D47
:103A70003039009A00FB01200090681CC5B24D450A
:103A8000EEDB052E00DD05260298067000250EE00F
:103A9000701E401BC1B20A20FFF79AFF09F1010115
:103AA0002944795C303900FB01BB681CC5B2B542C2
:103AB000EEDB31460A20FFF78BFF009901FB00BACD
:103AC00008F0020008B1CAF1000A5046BDE8FE8FB6
:103AD0007047000070B5002100230F22C4781CB38A
:103AE000174C246804F4E064C4F5E064C4F30721CF
:103AF000C1F10404E3B20A4144789C40E1B2847805
:103B0000144021430C07210E0E4C057861550478B2
:103B100004F01F050124AC4005786D11AD0005F1DE
:103B2000E025C5F8004109E0047804F01F050124F0
:103B3000AC40054D0678761145F8264070BD000072
:103B40000CED00E000E400E080E100E070B500244E
:103B500019E004F1B001C8B2002100F02FF90021F2
:103B6000084600F02BF90021102000F027F900256D
:103B700005E00121002000F021F9681CC5B2802D6C
:103B8000F7DB601CC4B2082CE3DB70BD1CB501215F
:103B9000202003F0B3FB01208DF8040000208DF8F5
:103BA000060001208DF8070003208DF8050040F283
:103BB0004550009069464A48FEF730FB40F24551B7
:103BC0004748FEF7A1FB40214548FEF79DFB6420D6
:103BD00009F01AF840214248FEF794FBC82009F08A
:103BE00013F840213E48FEF78FFB0021AE2000F085
:103BF000E5F80021084600F0E1F80021102000F06F
:103C0000DDF80021402000F0D9F80021812000F0EB
:103C1000D5F80021CF2000F0D1F80021A12000F03C
:103C2000CDF80021C82000F0C9F80021A62000F03E
:103C3000C5F80021A82000F0C1F800213F2000F0C5
:103C4000BDF80021D32000F0B9F80021084600F0AB
:103C5000B5F80021D52000F0B1F80021802000F057
:103C6000ADF80021D92000F0A9F80021F12000F0E2
:103C7000A5F80021DA2000F0A1F80021122000F0C0
:103C80009DF80021DB2000F099F80021402000F091
:103C900095F80021202000F091F80021022000F08A
:103CA0008DF800218D2000F089F80021142000F00B
:103CB00085F80021A42000F081F80021A62000F062
:103CC0007DF80021AF2000F079F80021AF2000F04E
:103CD00075F8FFF73BFF0021084600F003F81CBD14
:103CE0000014024070B504460D4605F1B001C8B29B
:103CF000002100F063F8102141EA1410002100F0C7
:103D00005DF804F00F0141F00100002100F056F8C9
:103D100070BD00002DE9F04107460E469046002593
:103D20000024A8F12000C5B27F2F02DD0027B01CBF
:103D3000C6B231463846FFF7D5FF002408E004EB51
:103D400005110F4A505C012100F038F8601CC4B224
:103D5000082CF4DB701CC1B23846FFF7C3FF002407
:103D600009E004EB05110831054A505C012100F01F
:103D700025F8601CC4B2082CF3DBBDE8F08100001C
:103D8000781501082DE9F04104460F461546002636
:103D90000EE0AA5D39462046FFF7BCFF04F108009B
:103DA000C4B2782C02DD0024B81CC7B2701CC6B2A5
:103DB000A85D0028EDD1BDE8F081000070B5044693
:103DC0000E4626B104211A48FEF79EFA03E00421AC
:103DD0001748FEF797FA01211548FEF793FA0025D8
:103DE0001BE04FF480611248FEF78CFA04F080006B
:103DF00028B14FF480710E48FEF786FA04E04FF4C4
:103E000080710B48FEF77EFA4FF480610848FEF798
:103E10007BFA6006040E681CC5B2082DE1DB0121A7
:103E20000348FEF771FA04210148FEF76DFA70BDF0
:103E3000001402407047000010B50348006810B13C
:103E400001480068804710BDD000002070B50446CE
:103E500000F0AEF80020414908704149087041491E
:103E6000087041490860414908604149087041496A
:103E7000087041490870414908604149086041495A
:103E800008604148006858B14048056845B13E485F
:103E9000066803E0761E002028602D1D002EF9D153
:103EA00000203B4908603B4908603B4908603B49AA
:103EB00008603B4908603B4908603B4908603B4952
:103EC000087002F099F802F0D3F8204601F0E6FD00
:103ED000208800B170BD204601F046FE208800B168
:103EE000F8E7204601F04CFE208800B1F2E72046BA
:103EF00001F0C6FE208800B1ECE7204602F0ACF8E5
:103F0000208800B1E6E7204602F08AF9208800B157
:103F1000E0E7204602F04EFC208800B1DAE72046B8
:103F200001F0EAFD208800B1D4E7204603F064F8F0
:103F3000208800B1CEE7204602F086FB208800B141
:103F4000C8E7204603F0BCF8208800B1C2E701F0C2
:103F5000D1FCFFF76FFF00BFBCE70000E4000020CA
:103F6000E5000020180100208001002084010020CD
:103F7000FE000020FF000020000100200C010020B6
:103F80001001002014010020981B0108941B010857
:103F9000C4000020C8000020CC000020D000002079
:103FA000D4000020D8000020DC00002046010020C2
:103FB000064800680649096800EB81000549086069
:103FC0000846006820F0070008607047941B01084D
:103FD000981B01088801002010B500242D480078A6
:103FE000012800D010BD00BFFCF702F9044600BF55
:103FF0002948007828B900BF2046FCF7FDF800BF2B
:10400000F0E725480078401E2349087008460078EC
:10401000002805DD00BF2046FCF7EEF800BFE1E711
:104020001E480078002805DD00BF2046FCF7E4F8B4
:1040300000BFD7E701F0CCFF1949087008460078A7
:1040400000EB4000174951F8200017490860084666
:10405000006816490968884205D100BF2046FCF770
:10406000CBF800BFBEE710480068D0F88400401CC1
:104070000D490968C1F884000D480068401C0C49CE
:104080000860FCF729FD00BF2046FCF7B5F800BF2B
:1040900000BFA7E7E5000020E40000201801002091
:1040A000FF000020347C00208401002080010020DB
:1040B0003C0100202DE9F04104460E46154600273C
:1040C0001B480078002804DD42F6E1602880BDE846
:1040D000F0811CB945F6C3502880F8E700BF00BF47
:1040E000FCF786F8074600BF00BF124820606660F4
:1040F0000020206284F82500A062402084F824007B
:1041000004F1080001F073FE204601F0A1FD0A4809
:104110000088401C0849088000BF00BF3846FCF7F3
:104120006BF800BF00BF0020288000BFCFE7000071
:10413000E40000204D555458FC0000202DE9F047C4
:1041400088B00546894690461C46109E4FF0000AEE
:104150008A480078002805DD46F2AE10308008B0AD
:10416000BDE8F0871DB945F6C3503080F7E7B8F1D8
:10417000000F03D0B8F5004F02D100E000BF03E00C
:1041800045F625603080EAE700BF7D49286888420F
:1041900003D045F6C4503080E1E70CB10020206028
:1041A00000BF00BFFCF724F8824600BF00BF95F8AF
:1041B0002500C0B97348006828627248006890F80A
:1041C000370085F82400012085F825000CB1A86A85
:1041D000206000BF00BF5046FCF70EF800BF00BFD4
:1041E00000203080BBE76749286A0968884212D1FD
:1041F00095F82500401C85F825000CB1A86A2060C0
:1042000000BF00BF5046FBF7F7FF00BF00BF45F2FD
:1042100082703080A3E708F4004050B100BF00BFB7
:104220005046FBF7E9FF00BF00BF46F2B0103080F8
:1042300095E75548007800280ADD00BF00BF5046CA
:10424000FBF7DAFF00BF00BF46F66350308086E719
:104250002F6A97F837004B49096891F83710884260
:104260003ADD97F8360008282AD2DFE800F0041576
:104270001E1F17162021384601F060FF41480068D4
:1042800090F8370087F8370097F8370001F0C0FE44
:10429000384601F015FF1EE000BF00BF3948006836
:1042A00090F8370087F8370015E000BF00BF00BF67
:1042B0003448006890F83710384601F075FD0AE080
:1042C00000BF00BF5046FBF797FF00BF00BF46F698
:1042D0002D60308043E700BF4B46042229466846E4
:1042E00001F0DAFC00BF00BF5046FBF785FF00BFBE
:1042F00000BF00F005F900BF00BFFBF779FF824661
:1043000000BF00BF1F48006890F8350030B1012899
:104310000CD002281AD0032821D110E01CB1194872
:104320000068006C2060002030801CE01CB1154843
:104330000068006C206046F2A910308013E00CB1D8
:104340000020206047F2D92030800CE01CB10D48DD
:104350000068006C206045F6C250308003E046F6ED
:104360002E60308000BF00BF00BF00BF5046FBF78B
:1043700043FF00BF00BF00BFF1E60000E4000020E3
:104380004D55545880010020180100202DE9F84FA8
:104390000446884615464FF0000A55480078002824
:1043A00004DD46F20E202880BDE8F88F1CB945F6E2
:1043B000C3502880F8E7B8F1000F03D0B8F5004FDC
:1043C00002D100E000BF03E045F625602880EBE75E
:1043D00000BF48492068884203D045F6C450288071
:1043E000E2E700BF00BFFBF703FF824600BF00BF4C
:1043F0004149206A096888420AD000BF00BF504680
:10440000FBF7FAFE00BF00BF45F281702880CBE7C2
:10441000FDF782F80746A76294F82500401E84F84D
:10442000250094F8250000280ADD00BF00BF504693
:10443000FBF7E2FE00BF00BF45F283702880B3E7C0
:1044400004F10809B9F8080068B90020206284F86E
:10445000250000BF00BF5046FBF7CEFE00BF00BFE7
:1044600000202880A0E72448006890F8370094F8DE
:104470002410884219D02048006801F05FFE94F8AB
:1044800024001D49096881F837001B49096891F823
:10449000370001F0BDFD1848006801F031FE1648F4
:1044A000006890F8370015490870D9F80000866850
:1044B000266296F8370084F82400012084F825004D
:1044C00000231A4631462046009701F001FD00BF47
:1044D00000BF5046FBF790FE00BF00BF08F400404D
:1044E00008B900F00DF80020288000BF5CE700004C
:1044F000E40000204D55545880010020FE000020AB
:1045000010B500241F480078002800DD10BD1E48AB
:104510000078002800DDF9E700BFFBF769FE0446DC
:1045200000BF01F055FD194908700846007800EBFE
:104530004000174951F820001649086008460068F5
:1045400015490968884205D100BF2046FBF754FE93
:1045500000BFDBE70F480068D0F88400401C0D491D
:104560000968C1F884000D480068401C0B490860C8
:10457000FCF7ADFA00BF2046FBF73EFE00BF00BFD0
:10458000C4E70000E400002018010020FF00002024
:10459000347C002084010020800100203C010020A8
:1045A00070B50446002518480078002803DD46F65B
:1045B0006250208070BD15480078012803D045F670
:1045C00089602080F6E712480078FA2803DB45F27C
:1045D00009202080EEE700BF00BFFBF709FE05467B
:1045E00000BF00BF0A480078401C0949087001F06C
:1045F000D3FD00BF00BF2846FBF7FEFD00BF00BF94
:104600000020208000BFD5E7E4000020E500002066
:104610001801002070B504460025204800780028C5
:1046200003DD46F66550208070BD1D4800780128E6
:1046300003D045F689602080F6E71A48007818B95B
:1046400046F664502080EFE700BF00BFFBF7D0FDC7
:10465000054600BF00BF13480078401E114908708E
:104660000846007800280ADD00BF00BF2846FBF797
:10467000C3FD00BF00BF46F663502080D4E701F0C1
:1046800099FD00BF00BF2846FBF7B6FD00BF00BF85
:10469000FFF736FF0020208000BFC5E7E4000020C0
:1046A000E5000020180100202DE9F04104460E46E7
:1046B00017461D464FF0000818480078002804DD12
:1046C00042F6E1602880BDE8F0811CB945F6C35090
:1046D0002880F8E700BF00BFFBF78AFD804600BFD7
:1046E00000BF0F482060276200206062666004F10E
:1046F000080001F07CFB204601F07AFD09480088A3
:10470000401C0849088000BF00BF4046FBF774FD0D
:1047100000BF00BF0020288000BFD4E7E4000020D5
:1047200053454D41200100202DE9F04788B0064651
:10473000894690461C46109D4FF0000A604800785C
:10474000002806DD46F2AE102880002008B0BDE843
:10475000F08726B945F6C35028800020F6E7B8F167
:10476000000F03D0B8F5004F02D100E000BF04E015
:1047700045F6256028800020E8E700BF51493068F1
:10478000884204D045F6C45028800020DEE70CB1F2
:104790000020206000BF00BFFBF72AFD824600BF5B
:1047A00000BF306A88B1306A401E30620CB1706A56
:1047B0002060376A00BF00BF5046FBF71DFD00BFF9
:1047C00000BF002028803846C0E708F4004060B1F0
:1047D000376A00BF00BF5046FBF70EFD00BF00BFA9
:1047E00046F2B01028803846B0E7374800780028F5
:1047F0000BDD00BF00BF5046FBF7FEFC00BF00BF53
:1048000046F6635028800020A0E74B46062231463A
:10481000684601F041FA00BF00BF5046FBF7ECFCD0
:1048200000BF00BFFFF76CFE00BF00BFFBF7E0FC5E
:10483000824600BF00BF2548006890F8350030B1BF
:1048400001280CD002281AD0032821D110E01CB175
:104850001E480068006C20600020288024E01CB105
:104860001A480068006C206046F2A91028801BE0FE
:104870000CB10020206047F2D920288014E01CB140
:1048800012480068006C206045F6C25028800BE09A
:1048900046F62E60288000BF00BF5046FBF7ACFCF8
:1048A00000BF00BF002051E700BF376A00BF00BF54
:1048B0005046FBF7A1FC00BF00BF384646E70000AA
:1048C000E400002053454D411801002080010020E4
:1048D0002DE9F04105460E4614462DB945F6C35064
:1048E00020800020BDE8F0814EB1B6F5007F07D0F2
:1048F000B6F5004F05D0B6F5024F04D102E000BF77
:1049000000BF00BF04E045F6256020800020E9E7F5
:1049100000BF0A492868884204D045F6C450208068
:104920000020DFE7FCF7F8FD80462346424631468B
:10493000284601F081FC07463846D3E753454D41F0
:1049400010B5044612480078E8B901F041FB11495E
:10495000087008460078104908700E48007800EB8F
:1049600040000E4951F820000D49086008460068D3
:104970000C490860012006490870FCF797F843F6D7
:104980009920208002E045F68A60208010BD00005A
:10499000E5000020FF000020FE000020347C002005
:1049A00084010020800100202DE9F04107464FF0EE
:1049B000000800BF00BFFBF71BFC804600BF00BF24
:1049C00000203B4908803B4908603B4908603B495F
:1049D00008603B4908603B49088100BF00BF404672
:1049E000FBF70AFC00BF00BF00BF00BFFBF700FCE5
:1049F000804600BF00BF3448046800BF00BF404687
:104A0000FBF7FAFB00BF00BF21E000BF00BFFBF7D0
:104A1000EFFB804600BF00BF00206C34E0632060E5
:104A20002063A061A082E0826062A062FCF774FD56
:104A300020626C3C04F158060020B081D4F8B040EC
:104A400000BF00BF4046FBF7D7FB00BF00BF002CF4
:104A5000DBD100BF00BFFBF7CBFB804600BF00BF30
:104A60001A48056800BF00BF4046FBF7C5FB00BF02
:104A700000BF12E000BF00BFFBF7BAFB804600BFDB
:104A800000BF05F120060020B081AD6900BF00BF66
:104A90004046FBF7B1FB00BF00BF002DEAD102F09A
:104AA000BBF902F0B3FB00203880BDE8F0810000C4
:104AB00026010020380100204C0100207001002058
:104AC00010010020287C002040010020040100206B
:104AD000F8B5044600266946324800F00FFDBDF8DF
:104AE000000018B1BDF800002080F8BD6A46002122
:104AF000022000F07BFDBDF8000018B1BDF80000F9
:104B00002080F2E700BF00BFFBF772FB064600BF44
:104B100000BF00202449086000BF00BF3046FBF7FB
:104B20006BFB00BF00BF00252048006820490968D2
:104B3000884205D91D4800681D490968B0FBF1F598
:104B400025B91A4800680A21B0FBF1F56A46002130
:104B5000284600F04BFD6946124800F0B5F9BDF853
:104B6000000018B1BDF800002080BEE700BF00BF04
:104B7000FBF73EFB064600BF00BF00200D49086062
:104B8000094800680C49086001200C49087000BF02
:104B900000BF3046FBF730FB00BF00BF0020208085
:104BA00000BFA2E7D080002028010020C81B010818
:104BB000B01B0108380100202C0100203401002026
:104BC00010B50348006810B101480068804710BD67
:104BD000D40000202DE9FF4F85B004469046DDE962
:104BE0001995159F139E002002905C4800780028BC
:104BF00005DD47F24A10288009B0BDE8F08F1CB9E6
:104C000047F2AD102880F7E7B8F1000F03D147F263
:104C10004F102880F0E71EB946F62F602880EBE79A
:104C20004F480068874203D246F630602880E3E7A9
:104C30001498B84203D346F631602880DCE7129816
:104C4000402803D346F273202880D5E712983F28E6
:104C500006D14448844203D046F273202880CBE733
:104C6000204601F0B7FD0020288009F0010088B13E
:104C700009F0020070B1B3460020049007E0002064
:104C8000CBF800000BF1040B0498401C049004982E
:104C9000B842F4D3149806EB80000390CDE9007974
:104CA00032464046039B089900F0C6FA8346C4F892
:104CB00028800898E06206982062129884F83700ED
:104CC000C4F800B00398A060189860606662A7639B
:104CD000A4F83C904FF0000A08E0002104F17000B5
:104CE00040F82A100AF1010000F0FF0ABAF1000FA3
:104CF000F3D004F15800169900F0A2FF204600F00E
:104D000037F800BF00BFFBF773FA029000BF00BF87
:104D100094F8370001F07CF9204601F0F1F92046C3
:104D200001F00EFD10480088401C0F4908800F4814
:104D30000078012807D000BF00BF0298FBF75CFA9B
:104D400000BF00BF58E700BF00BF0298FBF754FA4E
:104D500000BF00BFFFF7D4FB00BF4DE7E400002019
:104D6000C41B0108707B002044010020E5000020E6
:104D700010B504460348006818B120460149096887
:104D8000884710BDC400002070B504460D460026BB
:104D900043480078002803DD47F24E10288070BD9C
:104DA0004048844203D147F24C102880F7E77CB991
:104DB00000BF00BFFBF71CFA064600BF00BF3A4821
:104DC000046800BF00BF3046FBF716FA00BF00BF03
:104DD00000BF00BFFBF70CFA064600BF00BF94F807
:104DE000360008282DD2DFE800F004090E10080A6A
:104DF0000F11204601F0A2F92EE02DE000BF204661
:104E000001F0DEFF28E000BF00BF00BF94F83400CF
:104E1000082810D2DFE800F004070508090A0B068D
:104E200000BF00BF08E000BF00BF00BF00BF2046BA
:104E300001F015F800E000BF00BF204601F0C0FF00
:104E40000AE000BF00BF3046FBF7D6F900BF00BF45
:104E500046F62D602880A2E700BF04F1580000F05C
:104E6000CDFE204600F024F8204601F081FC0F48DA
:104E70000088401E0D490880204601F0ABFCFF2051
:104E800084F8360000BF00BF3046FBF7B5F900BF1D
:104E900000BF00202880FFF733FB00BF7FE7000042
:104EA000E4000020707B00208001002044010020ED
:104EB00010B504460348006818B120460149096846
:104EC000884710BDC800002070B504460D46002676
:104ED00015480078002803DD47F25510288070BD82
:104EE00000BF00BFFBF784F9064600BF00BF1CB13E
:104EF0000E48006884420AD100BF00BF3046FBF76D
:104F00007BF900BF00BF47F257102880E7E700BFDA
:104F100000BF3046FBF770F900BF00BF29462046AE
:104F200001F0B2FC00BFDAE7E400002080010020BD
:104F300010B504460348006818B1204601490968C5
:104F4000884710BDCC0000202DE9F04780460E4672
:104F500014461D464FF000096F480078002805DD13
:104F600046F2AE1028800020BDE8F0871EB1B6F5ED
:104F7000004F02D100E000BF04E045F62560288024
:104F80000020F1E700BF0CB10020206000BF00BF8F
:104F9000FBF72EF9814600BF00BF60480068406CF7
:104FA000A8B35E480068406C401E5C4909684864CC
:104FB0005A480068476C1CB158480068006C206073
:104FC000FCF7AAFA55490968096C401A534909685F
:104FD000C1F8980051480068D0F89C004F49096812
:104FE000D1F89810884207D24C480068D0F8980051
:104FF0004A490968C1F89C0000BF00BF4846FBF75A
:10500000FBF800BF00BF002028803846ACE7FFE770
:1050100006F4004058B100BF00BF4846FBF7ECF86B
:1050200000BF00BF46F2B010288000209CE73C483B
:10503000007800280BDD00BF00BF4846FBF7DCF816
:1050400000BF00BF46F66350288000208CE743462F
:1050500007220021084600F01FFE00BF00BF48469F
:10506000FBF7CAF800BF00BFFFF74AFA00BF00BF56
:10507000FBF7BEF8814600BF00BF2848006890F8E3
:10508000350020B1012826D0032834D12CE0FCB112
:1050900022480068006C2060FCF73EFA1F4909684E
:1050A000096C401A1D490968C1F898001B4800683E
:1050B000D0F89C0019490968D1F89810884207D2A5
:1050C00016480068D0F8980014490968C1F89C0097
:1050D0000020288013E01CB110480068006C20609C
:1050E00046F2A91028800AE00CB10020206047F2A7
:1050F000D920288003E046F62E60288000BF00BF3C
:1051000006480068476C00BF00BF4846FBF774F8CC
:1051100000BF00BF384627E7E400002080010020E0
:10512000180100202DE9F04106460D4614461DB138
:10513000B5F5004F02D100E000BF05E045F625605F
:1051400020800020BDE8F08100BFFCF7E5F9804633
:10515000234642462946304601F022FC074638469F
:10516000F0E700002DE9F04705460E4617461C46BD
:105170004FF0000A2E480078002804DD47F259104D
:105180002080BDE8F0871EB946F2D5202080F8E7E0
:105190001FB946F2D5202080F3E700BF00BFFBF720
:1051A00027F8824600BF00BF0DB92248056828686D
:1051B00068B900BF00BF5046FBF71EF800BF00BF34
:1051C00000203060386047F252102080D9E795F80F
:1051D0003C0000F0010068B900BF00BF5046FBF77B
:1051E0000BF800BF00BF00203060386047F2541059
:1051F0002080C6E700BF00BF5046FAF7FDFF00BFA2
:1052000000BF4FF00008D5F8249003E009F104092D
:1052100008F10108D9F800000028F7D0C6F800808E
:10522000A86BA0EB080038600020208000BFA8E732
:10523000E400002080010020F0B50446DDE90556B9
:1052400002EB850020F007004FF0807C071F3846F6
:10525000C7F800C0071F38463C60DFF834C2071F9C
:105260003846C7F800C04FF0123C071F3846C7F851
:1052700000C04FF0033C071F3846C7F800C04FF08E
:10528000023C071F3846C7F800C0071F38463B607E
:10529000071F384639604FF0113C071F3846C7F8E2
:1052A00000C04FF0103C071F3846C7F800C04FF051
:1052B000093C071F3846C7F800C04FF0083C071FDD
:1052C0003846C7F800C04FF0073C071F3846C7F8FC
:1052D00000C04FF0063C071F3846C7F800C04FF02B
:1052E000053C071F3846C7F800C04FF0043C071FB5
:1052F0003846C7F800C006F00407002F7ED04FF0F4
:10530000007C071F3846C7F800C0DFF888C1071FB8
:105310003846C7F800C0DFF880C1071F3846C7F815
:1053200000C0DFF878C1071F3846C7F800C0DFF8B3
:1053300070C1071F3846C7F800C0DFF868C1071FF3
:105340003846C7F800C0DFF860C1071F3846C7F805
:1053500000C0DFF858C1071F3846C7F800C0DFF8A3
:1053600050C1071F3846C7F800C0DFF848C1071F03
:105370003846C7F800C0DFF840C1071F3846C7F8F5
:1053800000C0DFF838C1071F3846C7F800C0DFF893
:1053900030C1071F3846C7F800C0DFF828C1071F13
:1053A0003846C7F800C0DFF820C1071F3846C7F8E5
:1053B00000C0DFF818C1071F3846C7F800C04FF01B
:1053C000834C071F3846C7F800C0DFF804C1071F29
:1053D0003846C7F800C0DFF8FCC0071F3846C7F8DA
:1053E00000C0DFF8F4C0071F3846C7F800C0DFF878
:1053F000ECC0071F3846C7F800C000E047E0DFF800
:10540000E0C0071F3846C7F800C0DFF8D8C0071F44
:105410003846C7F800C0DFF8D0C0071F3846C7F8C5
:1054200000C04FF0824C071F3846C7F800C0DFF8B5
:10543000BCC0071F3846C7F800C0DFF8B4C0071F5C
:105440003846C7F800C0DFF8ACC0071F3846C7F8B9
:1054500000C04FF0814C071F3846C7F800C0DFF886
:1054600098C0071F3846C7F800C04FF0804C071F90
:105470003846C7F800C04FF07E5C071F3846C7F8B3
:1054800000C04FF0000C071F3846C7F800C0F0BD41
:10549000896900080000F8410000F0410000E8417F
:1054A0000000E0410000D8410000D0410000C841A8
:1054B0000000C0410000B8410000B0410000A84118
:1054C0000000A04100009841000090410000884188
:1054D0000000704100006041000050410000404168
:1054E0000000304100002041000010410000E04079
:1054F0000000C0400000A0400000404070B50546DC
:105500000C460A480078002803DD47F25D10208031
:1055100070BD0748854203D147F25B102080F7E752
:105520002146284601F01EFB00BFF1E7E400002001
:10553000707B002010B52948006890F83C0000F00E
:10554000040020B1254909680868FBF799FA244846
:10555000006890F83C0000F0040020B12049096880
:105560000868FBF79AFA1F48006810B11D480068E8
:105570008047FBF7D1FF04461848006818490968BE
:10558000884215D015480068D0F88C00201A1349BD
:105590000968C1F8880011480068D0F890000F49E8
:1055A0000968D1F8881008440C490968C1F89000CE
:1055B0000B480068C0F88C4008480068D0F8A80084
:1055C00009490968884205D2074800680349096803
:1055D000C1F8A80000200449086010BD8001002027
:1055E00084010020D8000020140100202DE9F041A2
:1055F00005460E461446002727480078002804DD9B
:1056000047F275202080BDE8F0812448007800280A
:1056100003DD46F663502080F5E736B1022E05D053
:10562000042E0AD0082E09D101E000BF00BF1DB929
:1056300047F27E202080E6E704E003E045F625609F
:105640002080E0E700BF00BF00BFFAF7D1FD0746AA
:1056500000BF00BF2346324629461148006801F0CA
:1056600051FB208838B100BF00BF3846FAF7C4FDAF
:1056700000BF00BFC7E70A48006800F05FFD00BF39
:1056800000BF3846FAF7B8FD00BF00BFFEF738FF8D
:105690000020208000BFB6E7E400002018010020B1
:1056A000800100202DE9FF5F05460E46174698460B
:1056B000DDE90EA4002000905A480078002804DD9F
:1056C00047F275202080BDE8FF9F574800780028EA
:1056D00003DD46F663502080F5E70AF00E0BBBF1C0
:1056E000000F09D0BBF1020F07D0BBF1040F10D09F
:1056F000BBF1080F0ED101E000BF00BFB8F1000FF1
:1057000006D12FB926B91DB947F27E202080DAE7ED
:1057100004E003E045F625602080D4E700BF2AF0CE
:105720001E0008B1012000E000200390039801282A
:1057300003D145F625602080C5E7CAF3001002902A
:105740000298C0B9B8F57A7F03D347F27B20208056
:10575000B9E73B2F03DD47F27A202080B3E73B2EE9
:1057600003DD47F279202080ADE7632D12DD47F29B
:1057700078202080A7E742F20F70864203DD47F2CF
:10578000792020809FE7B5F57A7F03DB47F2782008
:10579000208098E72548D0F800904FF4FA70B0FBCD
:1057A000F9F0404400FB09F04FF47A71B0FBF1F1DD
:1057B0004FF461606843C6EB061200EB8200384488
:1057C00000FB09100190019838B300BF00BFFAF741
:1057D0000FFD009000BF00BF23465A4614480199B0
:1057E000006801F08FFA208838B100BF00BF009830
:1057F000FAF702FD00BF00BF65E70D48006800F042
:105800009DFC00BF00BF0098FAF7F6FC00BF00BF88
:10581000FEF776FE0020208002E047F27E20208006
:1058200000BF50E7E400002018010020C81B010859
:105830008001002008B500F01FF86A4600210A48E0
:10584000FFF770FC09480068401E084908600846D8
:10585000006838B90648006808606A4600210548B3
:10586000FFF760FC08BD0000EC7F00207C010020F9
:1058700078010020D080002010B50348006810B1E6
:1058800001480068804710BDDC00002010B50024EE
:1058900000BF00BFFAF7ACFC044600BF00BF0848D9
:1058A0000078401C0649087000BF00BF2046FAF788
:1058B000A3FC00BF00BFFFF7BDFFFEF78DFB10BDCF
:1058C000E400002001464A1E4FF0E0235A61084AD6
:1058D000106820F07F4000BF10601A46126942F045
:1058E00005021A611A46126942F002021A617047F3
:1058F00020ED00E0244A2549254A264A2649274A20
:105900002748284A284A294A294A2A482A482B4A05
:105910002B482C4A2C482D4A2D482E482E482F48DB
:105920002F4A304A304A3148314A324A32483348A5
:1059300033483448344835483548364A364A374A79
:10594000374A384838483948394A3A4A3A4A3B4847
:105950003B483C483C493D483D4A3E4A3E4A3F4A16
:105960003F4A404A404A4148414A424A42484348E5
:10597000434A444A4448454A454A4648464800BF87
:1059800000BF00BF70470000FC1B0108601D01083C
:10599000FD1B0108FE1B0108001C0108041C010876
:1059A000081C0108051C0108301C0108311C0108F5
:1059B000321C0108341C0108361C01083A1C01087D
:1059C0003C1C01085C1C01085E1C0108601C0108ED
:1059D000621C0108641C0108661C0108681C01089F
:1059E000941C0108951C0108961C0108981C0108CC
:1059F0009A1C01089B1C01089C1C01089E1C0108A4
:105A0000A01C0108A21C0108A41C0108A61C010876
:105A1000A81C0108D81C0108D91C0108DA1C0108BF
:105A2000DB1C0108DC1C0108DE1C0108E01C01086D
:105A3000081D0108091D01080A1D01080B1D0108A8
:105A40000C1D01080E1D0108101D0108141D010880
:105A5000151D0108161D0108171D0108181D010854
:105A6000191D01081A1D01081B1D01081C1D010834
:105A70001E1D01081F1D0108201D0108221D01080F
:105A8000241D0108251D0108281D0108581D0108B5
:105A9000591D01085A1D01085C1D01080021034A17
:105AA0001160034A1180018070470000E800002067
:105AB000EC000020002419E000BF00BFFAF798FBBB
:105AC000044600BF00BF0A480068401C084908603F
:105AD00008480068401C0749086000BF00BF204616
