:020000040800F2
:1000000000D201209D01000815370008F9200008E2
:100010007D32000847120008E79900080000000040
:10002000000000000000000000000000FB8D000840
:100030001118000800000000E30A0008E951000858
:10004000D7010008D7010008D7010008D701000830
:10005000D7010008D7010008311B0008D7010008AC
:10006000351C0008D7010008D7010008D701000897
:10007000D7010008D7010008D7010008D701000800
:10008000D7010008D7010008D7010008D7010008F0
:10009000D7010008D7010008D7010008D7010008E0
:1000A000D7010008D7010008D7010008D7010008D0
:1000B000F98F00089590000861910008D7010008A9
:1000C000D7010008D7010008D7010008D7010008B0
:1000D000D70100084994000839950008C99600081E
:1000E000D7010008D7010008D7010008D701000890
:1000F000D7010008D7010008D7010008D701000880
:10010000D7010008096F000821920008D7010008F4
:10011000D7010008D7010008D7010008E5920008C0
:10012000D7010008D7010008D7010008D70100084F
:10013000D7010008D7010008D7010008D70100083F
:10014000D7010008D7010008D7010008D70100082F
:10015000D7010008D7010008D70100080998000856
:10016000D7010008D7010008D7010008D70100080F
:10017000D7010008D7010008D7010008D7010008FF
:10018000D7010008D7010008DFF80CD000F01CFCF4
:100190000048004761E8000800D20120DFF838007D
:1001A000016841F470010160BFF34F8FDFF82C004C
:1001B000016821F040410160BFF36F8F084880471C
:1001C00008480047FEE7FEE7FEE7FEE7FEE7FEE73A
:1001D000FEE7FEE7FEE7FEE788ED00E034EF00E033
:1001E000918F00088901000872B6704762B67047A7
:1001F000EFF3108072B6704780F31088704730BFFD
:10020000704720BF7047B0FA80F0704790FAA0F0B6
:10021000B0FA80F0704790FAA0F070472DE9F05FD7
:100220000546002092469B46884606468146402465
:100230001BE0284641464746224600F076FA5346E0
:100240005A46C01A914110D311461846224600F072
:100250005DFA2D1A67EB01084F4622460120002166
:1002600000F054FA17EB00094E41201EA4F10104DE
:10027000DFDC484631462A464346BDE8F09F2DE97B
:10028000F0410024061B254671F1000605DA012421
:100290000027D0EB070067EB0101161E73F1000683
:1002A00005DA0027D2EB0702012567EB0303FFF70E
:1002B000B5FF86460E4617469C46AC4204D0002544
:1002C000D0EB050E65EB010624B10020D2EB000750
:1002D00060EB030C704631463A466346BDE8F08158
:1002E00040EA01039B0703D009E008C9121F08C0B8
:1002F000042AFAD203E011F8013B00F8013B521E38
:10030000F9D2704730B505462A460B4612F8010B64
:1003100013F8014B08B1A042F8D01CB1002802D05C
:100320006D1CF1E7284630BD421C10F8011B002966
:10033000FBD1801A70472DE9FE4F804681EA030009
:10034000C00F0C46009021F0004123F00045B8EBAF
:100350000200A94105D24046214690461C460B4664
:10036000024623F00040104347D0270DC7F30A0090
:10037000C3F30A510290401A019040286BDAC3F38C
:10038000130040F4801B0098924620B10023D2EB6A
:10039000030A63EB0B0B01985946C0F1400250462B
:1003A00000F0B4F906460D4650465946019A00F051
:1003B000CCF910EB08006141002487EA115284EA6D
:1003C000E7731A4340D0009A62B3019A012A4FEAB8
:1003D000075215DC001B61EB02014FF0004202EAFC
:1003E0000752CDE90042001C41F5801132462B46F0
:1003F00000F003FA03B0BDE8F08F40462146F9E76C
:10040000001B61EB0201001C41F5801300185B41E9
:100410002018A2F5001747EB030140EAD570B61982
:100420006D4111E06D084FEA360645EAC0754FEAA6
:100430000752001B61EB0201001C41F580114908C5
:100440004FEA30000019514132462B4603B0BDE857
:10045000F04F00F0C3B90098012240000023D0EB18
:10046000020263EBE073009821464FEAE074B8EBB8
:10047000000061EB0401E9E783F000435BE781F0F2
:10048000004158E72DE9FE4F81EA030404F00044DF
:1004900021F0004100944FF0000B23F0004350EA9C
:1004A00001045ED052EA03045BD0C3F30A54C1F3E3
:1004B0000A552C44A4F2F3340194A0FB0254C1F376
:1004C000130141F48011C3F3130343F4801301FBC0
:1004D000024400FB034E840A970A44EA815447EA27
:1004E0008357A4FB076802958D0A05FB07854FEA31
:1004F000932C04FB0C542705029D4FEA065847EA4B
:100500001637B5EB08056EEB070C870E920E47EA1F
:10051000811742EA8312A7FB0201B6EB0B0164EBE1
:1005200000042B0D43EA0C335E1844EB1C50DA46F2
:100530005146E7FB0201C5F313044FEA0B3343EACC
:1005400014534FEA0432019C43EA0603A4F10C045D
:100550000294009CCDE900B400F04FF903B0BDE86F
:10056000F08F00200146F9E72DE9F04D81EA030400
:1005700004F0004B21F0004514464FF0000A23F030
:10058000004150EA050220D054EA01021DD0C5F313
:100590000A570246C5F31303C1F31300C1F30A5609
:1005A00040F4801543F48013A7EB0608101BD646D1
:1005B00008F2FD3873EB050002D308F1010801E0F1
:1005C00092185B41B8F1000F03DA00200146BDE844
:1005D000F08D00204FF48011064684460EE0171B74
:1005E00073EB050705D3121B63EB050306434CEAC7
:1005F000010C49084FEA300092185B4150EA0107AC
:10060000EDD152EA030012D082EA040083EA050128
:10061000084305D0101BAB4106D20122002306E09F
:1006200000224FF0004302E06FF0010253101AEB7A
:1006300006004CEB085110EB0A0041EB0B01BDE842
:10064000F04D00F0CBB80EB5C10F80EAE070084461
:10065000CA07002140F233438DE80E000A460B46DC
:1006600000F0CBF803B000BD0EB540F2334102916B
:100670000021CDE900110A460B4600F0BEF803B098
:1006800000BD00F0004230F000400AD0C10D01F57D
:100690006071C0F3160042EA0151C20840071143DD
:1006A000704700200146704701F0004330B421F04C
:1006B000004150EA010206D00A0DA2F56072C1F3B2
:1006C0001301002A02DC30BC00207047440F44EACA
:1006D000C104C100E01830BC00EBC25000F047B8C4
:1006E00030B50B46014600202022012409E021FA02
:1006F00002F59D4205D303FA02F5491B04FA02F5FF
:100700002844151EA2F10102F1DC30BD202A04DBD1
:10071000203A00FA02F1002070479140C2F1200314
:1007200020FA03F3194390407047202A04DB203A53
:1007300021FA02F00021704721FA02F3D040C2F101
:1007400020029140084319467047202A06DBCB1748
:10075000203A41FA02F043EAE07306E041FA02F37C
:10076000D040C2F120029140084319467047002949
:10077000A8BF7047401C490008BF20F00100704727
:1007800010B4B0FA80FC00FA0CF050EA010404BF87
:1007900010BC704749B1CCF1200421FA04F411FADD
:1007A0000CF118BF012121430843A3EB0C01CB1D21
:1007B0004FEA00614FEA102042BF002010BC704792
:1007C00000EBC35010440029A4BF10BC7047401C6C
:1007D000490008BF20F0010010BC704710B5141E7E
:1007E00073F1000408DA401C41F1000192185B41EA
:1007F0001A4301D120F0010010BD2DE9F04D9246C1
:100800009B4611B1B1FA81F202E0B0FA80F22032D7
:100810009046FFF77BFF04460F4640EA0A0041EA94
:100820000B0153465A46084313D0114653EA0100C0
:1008300019D0C8F140025046FFF777FF05460E4633
:10084000504659464246FFF761FF084305D0012054
:1008500004E020463946BDE8F08D0020054346EA15
:10086000E0762C4337430A986305E40AA0EB0800BE
:100870000022FD0A44EA47540A3002D5002001460E
:10088000E9E7010510196941DDE9084500196941E9
:10089000BDE8F04DA2E770B521F0004303430CD052
:1008A000C1F30A550024D5EB040564EB0403D61705
:1008B000AD1AB34102DB0020014670BD201841EBA8
:1008C000025170BD2DE9F04D00231A461B1A8A41D2
:1008D00003DB00200146BDE8F08DC1F30A52C1F3ED
:1008E000130141F480154FF0000BD10702D100181D
:1008F0006D41521E0027044640F2FF11384601EBBD
:10090000620A3E468046024600204FF48011FFF7FF
:100910000CFFC2197141BB1846EB0100B4EB030C8C
:1009200075EB000C04D3E41A65EB000517460E4680
:10093000241908F101006D4180463428E3DDF919DE
:1009400046EB0600091BA84103D24FF0FF321346C5
:1009500001E0002213461BEB070046EB0A51BDE8FD
:10096000F04DFFF73BBFC1F30A52C1F3130140F250
:10097000FF3341F480119A4202DA002001467047A9
:1009800040F233439A42A2F2334202DC5242FFF772
:10099000CCBEFFF7BBBE000030B5041E71F10004F1
:1009A00004DB4FF00044404264EB0101141E73F17C
:1009B000000405DB1C464FF00043524263EB040386
:1009C000994208BF904230BD064C074D06E0E068F2
:1009D00040F0010394E8070098471034AC42F6D386
:1009E000FFF7D6FB280C0108480C010870B5C1F3CD
:1009F0000A5201F000450024C1F3130140F2FF3315
:100A000041F480119A4201DA002070BD40F2334374
:100A10009A42A2F2334203DC5242FFF786FE00E024
:100A200090402C43F1D0404270BD70B58C1810F846
:100A3000015B15F0070301D110F8013B2A1106D123
:100A400010F8012B03E010F8016B01F8016B5B1E3D
:100A5000F9D12B0705D40023521E0DD401F8013B18
:100A6000FAE710F8013BCB1A921C03E013F8015B84
:100A700001F8015B521EF9D5A142D8D3002070BD08
:100A8000EFF3098141B1F1EE101A40F8041D20ED99
:100A9000200A24490A6810607047B0EC200A02C896
:100AA000E1EE101A20490A68106070471F484FF0A5
:100AB000FF010170002080F309881D48016881F35F
:100AC00008881C484FF08051016062B6FEE7194863
:100AD0004FF080510160704716484FF0805101601F
:100AE000704772B6EFF3098028B1203880E8F00F24
:100AF0000C490968086000B50F4880475DF804EBB1
:100B00000E480F490A780270064807490A680260D1
:100B1000106890E8F00F203080F309884EF0F40E52
:100B200062B67047640100206801002022ED00E0F9
:100B30006C01002004ED00E0914E0008E20000206E
:100B4000E3000020F8B505460C4616463048047010
:100B5000467000F099FA00F0EAF9284600F0B4FA7D
:100B600004208DF8000008208DF801008DF8024067
:100B70002848805D8DF8030025B1012D07D0022D96
:100B80000FD109E00421244801F04AFA09E00821C4
:100B9000214801F045FA04E010211F4801F040FA15
:100BA00000BF00BF5021284600F0C2F903212846AB
:100BB00000F0BEF99DF80010284600F0B9F99DF844
:100BC0000110284600F0B4F99DF80210284600F004
:100BD000AFF99DF80310284600F0AAF925B1012DC0
:100BE00007D0022D0FD109E004210B4801F01AFAB9
:100BF00009E00821084801F015FA04E01021064830
:100C000001F010FA00BF00BF32200BF02DF9F8BD43
:100C1000B45A002074FE00080018024070B5054662
:100C20000C46284600F050FA0021284600F016F93C
:100C30002070284600F048FA0121284600F00EF9FD
:100C40006070284600F040FA0221284600F006F9BC
:100C5000A070284600F038FA0321284600F0FEF87C
:100C6000E070284600F030FA0421284600F0F6F83B
:100C70002071284600F028FA0521284600F0EEF8F9
:100C80006071284600F020FA0621284600F0E6F8B8
:100C9000A071284600F018FA0721284600F0DEF877
:100CA000E071284600F010FA0821284600F0D6F836
:100CB0002072284600F008FA0921284600F0CEF8F4
:100CC0006072284600F000FA0A21284600F0C6F8B3
:100CD000A072284600F0F8F970BD10B508200BF09E
:100CE000C3F810BD002001E0411C88B20928FBDBDD
:100CF000704700000146072901DD002070470248C7
:100D000050F821201046F9E7B85A002010B5034AE0
:100D1000111F081F00F02EF810BD0000C05A00205F
:100D200070B50546284600F0CFF90321284600F0AB
:100D300095F80446214608A008F058FE284600F021
:100D4000C3F90021284600F089F80446214606A090
:100D500008F04CFE201170BD64726174653A253054
:100D600032780D0A000000007265673A253032784B
:100D70000D0A0000F0B587B005460E461746002064
:100D80000690059004900390029001900090042139
:100D9000314801F045F908212F4801F041F91021AF
:100DA0002D4801F03DF90322694603A80EF004FC2A
:100DB0000322694602A80EF0B3FC0322694601A88B
:100DC0000EF060FD0421244801F02CF9082122488E
:100DD00001F028F91021204801F024F906AC9DF813
:100DE0000E0020709DF80D0060709DF80C00A07042
:100DF00005AC9DF80A0020709DF8090060709DF810
:100E00000800A07004AC9DF8060020709DF8050055
:100E100060709DF80400A070069800F4000018B1FE
:100E20000698A0F180700690059800F4000018B1B3
:100E30000598A0F180700590049800F4000018B1A6
:100E40000498A0F18070049006982860059830609E
:100E50000498386007B0F0BD001802402DE9F04159
:100E600004460D4624B1012C07D0022C0FD109E015
:100E700004211C4801F0D4F809E00821194801F0C8
:100E8000CFF804E01021174801F0CAF800BF00BFF6
:100E900045F01001204600F04BF880460021204626
:100EA00000F046F80746FFF718FF204600F01CF850
:100EB000064624B1012C07D0022C0FD109E00421F1
:100EC000084801F0AFF809E00821064801F0AAF847
:100ED00004E01021034801F0A5F800BF00BF304630
:100EE000BDE8F081001802401CB5044600200090C7
:100EF000FFF7F8FE24B1012C08D0022C12D10BE030
:100F00000122694601A80EF057FB0CE00122694658
:100F100001A80EF005FC06E00122694601A80EF0CA
:100F2000B1FC00E000BF00BF9DF804001CBD70478D
:100F300070B504460D46FFF7D5FE24B1012C06D04E
:100F4000022C0CD107E0284607F0DAFD70BD2846D8
:100F500007F070FEFAE7284607F0F2FEF6E70020F9
:100F6000F4E770B505460C462CB901221146284617
:100F700000F020F916E0012C05D12322012128469A
:100F800000F018F90EE0022C05D145220121284677
:100F900000F010F906E0032C04D167220121284655
:100FA00000F008F970BD00003EB50446354880F8F1
:100FB00025400021024682F82410002006E000228D
:100FC0003049091D41F82020411CC8B20828F6DB31
:100FD0000121880305F070FE0221042007F00EFFB6
:100FE0000420019000208DF808000C208DF80900E5
:100FF00001208DF80A0001A800F048FE08208DF8B5
:10100000000001208DF8010003208DF8020001206E
:101010008DF80300684602F07FFB00210846FFF7C9
:10102000A0FF05200AF020FF002000F04DF803216A
:10103000002000F089F8002000F046F8002101208F
:10104000FFF78FFF05200AF00FFF012000F03CF8AA
:101050000321012000F078F8012000F035F800218C
:101060000220FFF77EFF05200AF0FEFE022000F0BE
:101070002BF80321022000F067F8022000F024F88A
:101080003EBD0000B45A00200EB50420019000209F
:101090008DF808000C208DF8090000208DF80A005A
:1010A00001A800F0F3FD08208DF8000001208DF864
:1010B000010003208DF8020000208DF8030068462F
:1010C00002F02AFB0EBD000070B50446002517E0B3
:1010D0002CB90421104800F09AFF00B913E0012C4C
:1010E00005D120210D4800F092FF00B90BE0022C41
:1010F00005D14021094800F08AFF00B903E06D1CCA
:1011000007488542E4D300BF0548854203D3214602
:1011100004A008F06BFC70BD0010024000180240F3
:1011200000093D00414453313235365F57616974DF
:1011300044524459282564292054696D65204F750F
:1011400074202E2E2E0D0A0070B504460D4624B1D3
:10115000012C07D0022C0FD109E00421144800F023
:101160005FFF09E00821124800F05AFF04E0102157
:101170000F4800F055FF00BF00BF29462046FFF78B
:10118000D7FE24B1012C07D0022C0FD109E0042195
:10119000074800F047FF09E00821054800F042FF3A
:1011A00004E01021024800F03DFF00BF00BF70BD09
:1011B0000018024070B504460D46164624B1012CB5
:1011C00007D0022C0FD109E004211A4800F028FFB3
:1011D00009E00821174800F023FF04E0102115481A
:1011E00000F01EFF00BF00BF45F050012046FFF792
:1011F0009FFE00212046FFF79BFEFFF773FD31465F
:101200002046FFF795FE24B1012C07D0022C0FD108
:1012100009E00421074800F005FF09E0082105481E
:1012200000F000FF04E01021024800F0FBFE00BFC8
:1012300000BF70BD001802401FB5684605F05CFD98
:10124000019804B010BD00BFFEE710B500F020F813
:1012500000F01AF810BD000010B5002400BF00BF58
:10126000FEF7C6FF044600BF00BF1021054802F08C
:1012700007F800BF00BF2046FEF7BEFF00BF00BF5B
:1012800010BD0000DC5A002010B5FFF7E5FF10BDCF
:1012900010B500200249086000F00AF810BD0000F7
:1012A0009800002001490860704700009800002065
:1012B00010B5FFF7C1FF04460848006840F0807091
:1012C000064908600020064948600846006840F06A
:1012D000010008602046FFF7E5FF10BDFCED00E0CF
:1012E000001000E00149486870470000001000E06D
:1012F00070B500254FF4803404E0802005F0F0FD47
:1013000000B103E02000A4F10104F6D100BF0CB944
:10131000032070BD40F2FF5005F0B8FD2846F8E705
:1013200070B5044605E01648056805F0450000B1B3
:1013300000E0F8E700BF042005F0D2FD20B1042052
:1013400005F0A4FD032070BD012005F0C9FD20B10A
:10135000012005F09BFD0120F5E7094824380068CD
:10136000A04201D01020EEE740F2FF5005F08EFDC4
:1013700003482038006808210840C0B2E3E70000B5
:10138000342C014070B500264FF4803505E011483B
:10139000046804F0450000B103E02800A5F1010550
:1013A000F5D100BF15B104F0040028B103260420D4
:1013B00005F06CFD304670BD012005F091FD18B1BF
:1013C0000126012005F062FD40F2FF5005F05EFDB0
:1013D0003046F0E7342C014010B505E00B480468B6
:1013E00004F0450000B100E0F8E700BF042005F07C
:1013F00077FD20B1042005F049FD032010BD40F227
:10140000FF5005F043FD0020F8E70000342C0140B8
:101410002DE9F04105460E464FF0000805E0204852
:10142000076807F0450000B100E0F8E700BF0420BE
:1014300005F056FD28B1042005F028FD0320BDE885
:10144000F081012005F04CFD20B1012005F01EFDCA
:101450000120F4E7124824380068A84201D0102087
:10146000EDE740F2FF5005F011FD0D48203804680B
:1014700004F4604018B9200C30804046DFE704F4E3
:10148000005008B11320DAE704F4804008B11020BE
:10149000D5E704F4004008B10F20D0E74046CEE77E
:1014A000342C014070B500264FF4803505E00F481C
:1014B000046804F0450000B103E02800A5F101052F
:1014C000F5D100BF15B104F0040028B103260420B3
:1014D00005F0DCFC304670BD04F0400018B1002679
:1014E000402005F0D3FC3046F5E70000342C0140E5
:1014F0000246094B9A4201D2084801E006481038DA
:1015000001F000531BB1064B0B40C36002E0044BDB
:101510000B4083607047000010640240006002408E
:101520007D0F7D0F21B1026842F00102026003E0ED
:10153000026822F00102026070470000016821F099
:10154000010101600021016041608160C1600161B1
:10155000212141614A49884204D13D21484A103A3B
:1015600091608CE046491831884205D14FF474618E
:10157000434A103A916082E041493031884205D1B6
:101580004FF474113E4A103A916078E03C4948317A
:10159000884205D14FF07461394A103A91606EE08B
:1015A00037496031884204D13649354A103AD16012
:1015B00065E033497831884204D13349304A103AE2
:1015C000D1605CE02E499031884204D12F492C4AE9
:1015D000103AD16053E02A49A831884205D14FF032
:1015E0003D51274A103AD16049E02949884204D147
:1015F0003D21274A083A116041E0254918318842C7
:1016000005D14FF47461224A083A116037E020494D
:101610003031884205D14FF474111D4A083A1160E7
:101620002DE01B494831884205D14FF07461184ABA
:10163000083A116023E016496031884204D111490B
:10164000134A121F11601AE011497831884204D1FF
:101650000D490F4A121F116011E00D499031884267
:1016600004D10A490A4A121F116008E00849A8314A
:10167000884204D14FF03D51054A121F1160704756
:10168000106002403D000020400F002000003D207F
:101690001064024021B1026842F02002026003E0BF
:1016A000026822F0200202607047014600200A68AA
:1016B00002F001020AB1012000E0002070470000A2
:1016C00030B503460A46002000240B4DAB4201D240
:1016D0000A4901E00849103902F000550DB14C6883
:1016E00000E00C68064D2C4004EA02050DB1012013
:1016F00000E0002030BD00001064024000600240A5
:101700007D0F7D0F10B500220268134B1A40CC6884
:101710000B6823434C6923438C692343CC692343DF
:101720000C6A23434C6A23438C6A23434C6B234348
:101730008C6B23431A430260426922F00702D1E90D
:101740000B3423431A4342610B6943604B68836047
:101750008B68C36010BD00003F801CF04160704783
:1017600070B504460D4600212046FFF7DBFE00BFA2
:101770002046FFF79AFF0028FAD129462046FFF7B6
:10178000EDFF01212046FFF7CDFE70BD2DE9F041B0
:1017900090B004460D4617461E46DDF858801B489B
:1017A000844204D90121880505F056FA03E001219D
:1017B000480505F051FA2046FFF7C0FE00BF20465D
:1017C000FFF773FF0028FAD1019502970396402096
:1017D0000490CDF81480002006904FF480600790AC
:1017E0000020089009900A904FF480300B90002060
:1017F0000C9003200D9000200E900F9001A9204620
:10180000FFF780FF10B0BDE8F081000000640240E7
:101810007047000010B50446214610A008F0E6F815
:10182000240300F027F900F0BFF800200D490860FC
:10183000202007F065F9C4F3074007F061F9C4F30D
:10184000072007F05DF9E0B207F05AF901200649D8
:10185000C1F8B80200F0A8F810BD000066653A258E
:10186000780D0A00B8824042008040421CB5012138
:10187000022005F0F1F90121402005F0EDF94FF4C7
:101880008040009001208DF8040000208DF80600B3
:1018900003208DF8050001208DF8070069460D48EA
:1018A00000F04AFB8020009069460B4800F044FBA2
:1018B0008021094800F0B6FB01200849086007F0C4
:1018C000B5F8382007F038F900F034F804490880FA
:1018D0001CBD00000004024000180240B8824042D3
:1018E0008C0000202DE9F04106460C4617460020EA
:1018F0000F490860032007F003F9C4F3074007F01D
:10190000FFF8C4F3072007F0FBF8E0B207F0F8F89F
:10191000002505E0FF2007F0F3F87055681C85B23C
:10192000BD42F7DB012002490860BDE8F0810000FC
:10193000B882404210B5002400200E490860902073
:1019400007F0DEF8002007F0DBF8002007F0D8F8F9
:10195000002007F0D5F8FF2007F0D2F844EA002471
:10196000FF2007F0CDF8044301200349C1F8B80275
:10197000204610BDB88240420080404210B500248D
:10198000002007490860052007F0BAF8FF2007F09B
:10199000B7F8044601200349C1F8B802204610BD3B
:1019A000B88240420080404210B500BFFFF7E6FF1A
:1019B00000F001000028F9D110BD00002DE9F05F12
:1019C00081460F461646DFF8A8B04FEA1738C7F32E
:1019D0000B0ACAF58054A64200DC344644E04FEAC4
:1019E00008314FF480525846FFF77CFF002508E08D
:1019F0000AEB05001BF80000FF2800D003E0681C7C
:101A000085B2A542F4DB00BFA54216DA4046FFF7D7
:101A100001FF002507E019F8050005EB0A010BF8A6
:101A20000100681C85B2A542F5DB4FEA08314FF48E
:101A30008052584600F02EF804E0224639464846C7
:101A400000F028F8A64200D10FE008F101084FF09D
:101A5000000AA1442744301B86B2B6F5805F02DD40
:101A60004FF4805400E03446B9E700BFBDE8F09F72
:101A7000D826002010B5002004490860062007F091
:101A80003FF801200249C1F8B80210BDB8824042B7
:101A9000008040422DE9F04107460E461446F0B260
:101AA000C0F58075AC4200DC254612E02A4631467E
:101AB000384600F013F8AC4200D10BE02F442E441E
:101AC000601B84B2B4F5807F02DD4FF4807500E0C6
:101AD0002546EBE700BFBDE8F08100002DE9F041AD
:101AE00006460C461746FFF7C5FF00200F49086061
:101AF000022007F005F8C4F3074007F001F8C4F32B
:101B0000072006F0FDFFE0B206F0FAFF002504E032
:101B1000705D06F0F5FF681C85B2BD42F8DB012060
:101B200002490860FFF740FFBDE8F081B8824042FB
:101B30001CB5012000F09EF8012848D1264927480D
:101B400000F072FA26480088B0F5FA7F16D02548D2
:101B500002882348018824A007F048FF28A007F046
:101B600045FF1E48B0F8070000901C488379427971
:101B7000007900F1080127A007F038FF002018497C
:101B80000880184908808021284800F049FA134845
:101B900080780C2813DC1148008840F2E2718842FA
:101BA0000DDB0E48C0781F2809DC0C480079182886
:101BB00005DC0AF099FA01A91D4804F013FB4FF463
:101BC000C8700AF089FC8021184800F02BFA012027
:101BD00000F04AF81CBD0000501D0020F623002034
:101BE000780000207A000020636F756E743A20251B
:101BF00064206578636F756E743A25640D0A000081
:101C0000CAFDBEDDB2C9BCAFB3F6B4EDA3A10D0AE7
:101C10000000000047505354696D653A25643A2529
:101C2000643A25643A25640D0A0D0A000018024042
:101C3000A406002008B5042000F01CF870B10420B0
:101C400000F012F806480088401C054908806946E3
:101C5000044804F0C7FA042000F006F808BD0000AC
:101C60007A0000206C0400200149086070470000E1
:101C7000143C014001460020034A12680A400AB1A0
:101C8000012000E000207047143C0140002123495E
:101C90008279002A3AD00A46126803689A430B46B2
:101CA0001A600A1D126803689A430B1D1A600279B4
:101CB00011440A6803681A430A60184A0832126815
:101CC00003689A43154B08331A601A1D126803689B
:101CD0009A43124B0C331A604279102A0ED11A1F04
:101CE000126803681A430D4B08331A601A1D1268F4
:101CF00003681A43094B0C331A600DE00749427917
:101D000011440A6803681A430A6005E00279114425
:101D10000A6803689A430A6070470000003C01406B
:101D200010B500240EE04FF40C7100200CF0BCFF45
:101D3000184941F82400084650F8240000B903E08F
:101D4000601CC4B2032CEEDB00BF4FF40A7100200C
:101D50000CF0AAFF104908604FF40A7100200CF043
:101D6000A3FF0E4908604FF4007100200CF09CFFA7
:101D70000B490860032C0AD10748006838B10748AE
:101D8000006820B10846006808B1002010BD01209D
:101D9000FCE700008C790020700100207401002015
:101DA000800100202DE9FC4107460D460026002455
:101DB00000200090019008205B49086010204860D6
:101DC000402088600020C8604FF4806008610846A9
:101DD00005F0D2F81020FFF7A3FA044614B120460C
:101DE000BDE8FC815148008800044F490860372055
:101DF0004860402088600020C8604FF4806008611F
:101E0000084605F0B9F83720FFF78AFA04460CB106
:101E10002046E5E74FF0FF3045490860082048605C
:101E2000302088600220C8600020086101204861DD
:101E3000084605F03BF800203B4908603320486025
:101E4000402088600020C8604FF480600861084628
:101E500005F092F83320FFF763FA04460CB12046F0
:101E6000BEE70CE04FF4001005F03AF838B1314805
:101E700000684DF82600761C022E00D307E02D489E
:101E80004C38006840F22A6108400028EAD000BFC0
:101E9000082005F025F820B1082004F0F7FF042001
:101EA0009EE7022005F01CF820B1022004F0EEFFAE
:101EB000022095E7202005F013F820B1202004F03F
:101EC000E5FF06208CE74FF4007005F009F828B113
:101ED0004FF4007004F0DAFF072081E740F2FF5072
:101EE00004F0D4FF00980006009901F47F4140EA15
:101EF0000120009901F47F0140EA1120009940EA95
:101F00001160686001980006019901F47F4140EA80
:101F10000120019901F47F0140EA1120019940EA72
:101F20001160286020465BE73024002080000020FC
:101F300044240020802C0140F0B50A4600210023F3
:101F4000002400BF3DE0012505FA01F3156805EA0C
:101F500003049C4234D105684F000326BE40B543BC
:101F6000056015794E00B540066835430560157962
:101F7000012D02D01579022D16D185684F00032658
:101F8000BE40B543856055794E00B54086683543FF
:101F90008560456801268E40B54345604568967961
:101FA0008E40B6B235434560C5684F000326BE403B
:101FB000B543C560D5794E00B540C6683543C560A8
:101FC000491C1029BFD3F0BDF0B5002300244D07F4
:101FD000ED0E02FA05F3CE1000F1200555F826505B
:101FE0004E07F70E0F26BE40B543CF1000F1200676
:101FF00046F82750CE1000F1200555F8265045EA46
:102000000304CE1000F1200545F82640F0BD02463D
:10201000002013690B400BB1012000E00020704745
:10202000418370470183704770B504460D462946C9
:10203000204601F0BDF92946204601F0D3F970BDD4
:1020400010B50DF00FFA044634B1FD2C10D0FE2C63
:102050000AD0FF2C14D103E00BA007F0C7FC10E05E
:102060000EA007F0C3FC0CE014A007F0BFFC08E0D2
:1020700016A007F0BBFC1A491AA007F0B7FC00BF76
:1020800000BF00BF204610BD47534DC4A3BFE9D7D2
:10209000D4BCECB3C9B9A60D0A000000D3EB47537A
:1020A0004DC4A3BFE9CEB4CDA8D1B6B3C9B9A6A3D8
:1020B000ACC7EBB5C8B4FD0D0A000000C3BBBCEC57
:1020C000B2E2B5BD53494DBFA80D0A00D7A2B2E197
:1020D000CDF8C2E7D6D0A1A3A1A3A1A30D0A000009
:1020E0008E000020B5B1C7B0D0C5BAC5D6B5A3BA69
:1020F00025730D0A0000000000BFFEE74CF6CC403F
:1021000001490860704700000030004010B500F041
:1021100013F810BD70B505460C4645F2555000F059
:102120001FF8284600F010F8204600F013F800F0E1
:1021300003F8FFF7E3FF70BD4AF6AA2001490860E3
:1021400070470000003000400149486070470000BF
:1021500000300040014988607047000000300040B6
:102160000149086070470000003000401CB504467B
:102170000020019000902248008800042149086056
:102180000D204860402088600020C8604FF48060C7
:102190000861084604F0F0FE1B480068009002E069
:1021A000194800680090009800F045000028F7D01A
:1021B000012004F095FE20B1012004F067FE01200B
:1021C0001CBD042004F08CFE20B1042004F05EFE4F
:1021D0000320F5E70C48243800680D2801D01020B2
:1021E000EEE740F2FF5004F051FE07482038006847
:1021F00001900198C0F3432020700020E0E7000028
:102200008000002030240020342C014001B5CAB0E9
:102210004A98D0F80E001D90FEF726FA9FEDFE0BAF
:1022200053EC102BCDE91E019DED1E0B51EC100B54
:10223000FEF79AF9499148904A98D0F809001D9004
:10224000FEF712FA9FEDF40B53EC102BCDE91E01B3
:102250009DED1E0B51EC100BFEF786F94791469051
:102260009FEDEF0B8DED440B9FEDEF0B8DED420BD2
:102270009FEDEF0B8DED400B9FEDEF1B9DED420BA6
:1022800007F066FC8DED1A0B9FEDEB1B9DED440BEB
:1022900007F05EFC8DED180B9DED1A0B53EC102B27
:1022A0009DED180B51EC100BFEF7E6F8CDE91C0183
:1022B0009DED1C0B08F0CCFA8DED1E0B9DED440B33
:1022C00053EC102B9DED1E0B51EC100BFEF74CF94F
:1022D000CDE93A019FEDD81B9DED420B07F038FC8C
:1022E0008DED1A0B9FEDD41B9DED440B07F030FCD8
:1022F0008DED180B9DED1A0B53EC102B9DED180B6B
:1023000051EC100BFEF7B8F8CDE91C019DED1C0B4C
:1023100008F09EFA8DED1E0B9DED420B53EC102B39
:102320009DED1E0B51EC100BFEF71EF9CDE93801A7
:102330009DED400B53EC102B9DED480B51EC100B19
:10234000FEF79AF8CDE936019FEDBD0B53EC102B4B
:102350009DED460B51EC100BFEF794F89FEDBA0B78
:1023600053EC102BCDE91E019DED1E0B51EC100B13
:10237000FEF7FAF8CDE934019FEDB10B53EC102BC9
:102380009DED480B51EC100BFEF77CF89FEDAE0B6A
:1023900053EC102BCDE91E019DED1E0B51EC100BE3
:1023A000FEF7E2F8CDE932019FEDA50B53EC102BBF
:1023B0009DED360B51EC100BFEF764F89FEDA20B70
:1023C00053EC102BCDE91E019DED1E0B51EC100BB3
:1023D000FEF7CAF8CDE936019FED9D1B9DED3A0B46
:1023E00007F0B6FB8DED1A0B9FED9B0B53EC102BFA
:1023F0009DED1A0B51EC100BFEF744F89FED981B66
:10240000CDE91E019DED3A0B07F0A2FB8DED160BF9
:102410009FED950B53EC102B9DED160B51EC100B13
:10242000FEF730F89FED921BCDE91A019DED3A0BB6
:1024300007F08EFB8DED120B9FED8F0B53EC102BE5
:102440009DED120B51EC100BFEF71CF89FED7A1B63
:10245000CDE916019DED3A0B07F07AFB8DED100BDF
:102460009FED870B53EC102B9DED100B51EC100BD7
:10247000FEF708F89FED840B53EC102BCDE9120109
:102480009DED120B51EC100BFDF755FFCDE914013A
:102490009DED160B53EC102B9DED140B51EC100B16
:1024A000FDF749FFCDE918019DED1A0B53EC102BF8
:1024B0009DED180B51EC100BFDF73DFFCDE91C0114
:1024C0009DED1E0B53EC102B9DED1C0B51EC100BD6
:1024D000FDF731FFCDE930019FED5D1B9DED3A0B1E
:1024E00007F036FB8DED160B9FED690B53EC102BAF
:1024F0009DED160B51EC100BFDF7C4FF9FED581B23
:10250000CDE91A019DED3A0B07F022FB8DED120B80
:102510009FED610B53EC102B9DED120B51EC100B4A
:10252000FDF7B0FF9FED521BCDE916019DED3A0B73
:1025300007F00EFB8DED0E0B9FED590B53EC102B9E
:102540009DED0E0B51EC100BFDF79CFF9FED3A1B20
:10255000CDE912019DED3A0B07F0FAFA8DED0E0B65
:102560009FED470B53EC102B9DED0E0B51EC100B18
:10257000FDF788FFCDE910019DED120B53EC102BF8
:102580009DED100B51EC100BFDF7D5FECDE91401BC
:102590009DED160B53EC102B9DED140B51EC100B15
:1025A000FDF7C9FECDE918019DED1A0B53EC102B78
:1025B0009DED180B51EC100BFDF7BDFECDE91C0194
:1025C0009DED1C0B51EC100B81F000419FED1A0B9F
:1025D00053EC102BCDE91E019DED1E0B51EC100BA1
:1025E000FDF7C2FFCDE92E019FED191B9DED3A0BC2
:1025F00007F0AEFA8DED180B9FED2B0B53EC102B63
:102600009DED180B51EC100BFDF73CFF9FED141BDB
:10261000CDE91C014CE0000000000000006AF84019
:1026200000000040C1545841DE9333C1DF3F5841A0
:102630000000000000405D4000000000000000407D
:1026400002B43658FB2109400000000000806640BB
:102650000000000000002040000000008088E53FEE
:1026600000000000000018400000000000E0E53F0E
:102670000000000000001040000000000080E63F65
:10268000000000000000E83F000000000000F03FF4
:1026900000000000003AF13F000000000068F03F39
:1026A000000000000000EE3F00000000003AE13FA3
:1026B0009DED3A0B07F04CFA8DED140B9FEDFD0BE1
:1026C00053EC102B9DED140B51EC100BFDF7DAFEC3
:1026D0001FED191BCDE918019DED3A0B07F038FAF3
:1026E0008DED140B9FEDF50B53EC102B9DED140BA2
:1026F00051EC100BFDF7C6FECDE916019DED180B50
:1027000053EC102B9DED160B51EC100BFDF713FE47
:10271000CDE91A019DED1C0B53EC102B9DED1A0B0E
:1027200051EC100BFDF707FE1FED2F0B53EC102B98
:10273000CDE91E019DED1E0B51EC100BFDF714FFB2
:10274000CDE92C011FED3E1B9DED3A0B07F000FA81
:102750008DED160B9FEDDB0B53EC102B9DED160B47
:1027600051EC100BFDF78EFE1FED431BCDE91A0156
:102770009DED3A0B07F0ECF98DED160B9FEDD30BA9
:1027800053EC102B9DED160B51EC100BFDF77AFE60
:10279000CDE918019DED1A0B53EC102B9DED180B94
:1027A00051EC100BFDF7C7FDCDE91C019DED1C0B95
:1027B00051EC100B81F000411FED570B53EC102B27
:1027C000CDE91E019DED1E0B51EC100BFDF7CCFE6B
:1027D000CDE92A011FED621B9DED3A0B07F0B8F918
:1027E0008DED1C0B9FEDBB0B53EC102B9DED1C0BCB
:1027F00051EC100BFDF746FE1FED6B0B53EC102B4D
:10280000CDE91E019DED1E0B51EC100BFDF7ACFE4A
:10281000CDE928019DED340B53EC102B1FED740B0B
:1028200051EC100BFDF72EFECDE914019DED140BBC
:1028300007F0AAFF8DED160B9DED280B53EC102B26
:102840009DED160B51EC100BFDF71CFECDE91A01A6
:102850009DED340B53EC102B1FED7F0B51EC100B47
:10286000FDF710FECDE910019DED100B07F08CFF78
:102870008DED120B9DED2A0B53EC102B9DED120BE1
:1028800051EC100BFDF7FEFDCDE916019DED340B6B
:1028900053EC102B1FED8A0B51EC100BFDF7F2FDE2
:1028A000CDE90C019DED0C0B07F06EFF8DED0E0BCD
:1028B0009DED2C0B53EC102B9DED0E0B51EC100BE2
:1028C000FDF7E0FDCDE912019DED340B53EC102B2B
:1028D0001FEDA70B51EC100BFDF7D4FDCDE908015E
:1028E0009DED080B07F050FF8DED0A0B9DED2E0BB3
:1028F00053EC102B9DED0A0B51EC100BFDF7C2FDB4
:10290000CDE90E019DED340B53EC102B9DED300BFA
:1029100051EC100BFDF7B6FDCDE90C019DED0E0B52
:1029200053EC102B9DED0C0B51EC100BFDF703FD40
:10293000CDE910019DED120B53EC102B9DED100B0A
:1029400051EC100BFDF7F7FCCDE914019DED160BD2
:1029500053EC102B9DED140B51EC100BFDF7EBFC21
:10296000CDE918019DED1A0B53EC102B9DED180BC2
:1029700051EC100BFDF7DFFC1FEDD11BCDE91E0163
:102980009DED3A0B07F0E4F88DED180B1FEDC20B2F
:1029900053EC102B9DED180B51EC100BFDF76FFD58
:1029A000CDE91A019DED440B53EC102B9DED1A0B54
:1029B00051EC100BFDF766FDCDE91C019DED1E0BE2
:1029C00053EC102B9DED1C0B51EC100BFDF75AFD39
:1029D000CDE926019DED340B07F07AFF8DED240B38
:1029E0009DED340B07F050F88DED1E0B9DED380B6F
:1029F00053EC102B9DED1E0B51EC100BFDF742FD1F
:102A0000CDE922019DED340B07F0BEFE8DED140BD8
:102A10001FEDF71B9DED140B07F09AF88DED180BC9
:102A20001FEDFB1B9DED3A0B07F092F88DED160B99
:102A30009DED180B53EC102B9DED160B51EC100B6C
:102A4000FDF720FD1FEDF00B53EC102BCDE91A0123
:102A50009DED1A0B51EC100BFDF711FDCDE91C019A
:102A60009DED1C0B07F0F4FE8DED1E0B9DED1E0B76
:102A700053EC102B9DED440B51EC100BFDF774FD46
:102A8000CDE920019FED151B9DED360B07F060F899
:102A90008DED1A0B9DED340B06F0F6FF8DED120B4C
:102AA0009FED0E1B9DED120B07F052F88DED160BEE
:102AB00018E00000000000000040DA3F00000000C5
:102AC0000000CE3F0000000000B0C33F0000000047
:102AD0000080B13F0000000000B0933F0000000004
:102AE000000018409FEDFD1B9DED240B07F030F812
:102AF0008DED0A0B9FEDF91B9DED220B07F028F8D9
:102B00008DED060B9FEDF70B53EC102B9DED060B97
:102B100051EC100BFDF7B6FCCDE908019DED0A0B59
:102B200053EC102B9DED080B51EC100BFDF7AAFC9C
:102B30009FEDEA1BCDE90E019DED220B07F008F891
:102B40008DED060B9FEDE90B53EC102B9DED060B65
:102B500051EC100BFDF796FC9FEDE61BCDE90A0149
:102B60009DED240B06F0F4FF8DED060B9FEDDB1BB6
:102B70009DED240B06F0ECFF8DED000B9FEDDF0BC0
:102B800053EC102B9DED000B51EC100BFDF77AFC74
:102B90009FEDDC0B53EC102BCDE902019DED020BF8
:102BA00051EC100BFDF76BFCCDE904019DED060B1C
:102BB00053EC102B9DED040B51EC100BFDF7BBFB00
:102BC000CDE908019DED0A0B53EC102B9DED080B90
:102BD00051EC100BFDF7AFFBCDE90C019DED0E0B99
:102BE00053EC102B9DED0C0B51EC100BFDF744FC3E
:102BF000CDE912019DED200B53EC102B9FEDC30B83
:102C000051EC100BFDF73EFCCDE90E019DED240BC0
:102C100053EC102B9DED0E0B51EC100BFDF732FC1D
:102C2000CDE910019DED120B53EC102B9DED100B17
:102C300051EC100BFDF726FCCDE914019DED160BB0
:102C400053EC102B9DED140B51EC100BFDF71AFCFF
:102C5000CDE918019DED1A0B53EC102B9DED180BCF
:102C600051EC100BFDF70EFC9FEDA21BCDE91E01F0
:102C70009DED360B06F06CFF8DED160B9DED340BC4
:102C800006F002FF8DED0E0B9FED9A1B9DED0E0BD6
:102C900006F05EFF8DED120B9FED961B9DED220B56
:102CA00006F056FF8DED060B9FED920B53EC102BAB
:102CB0009DED060B51EC100BFDF7E4FB9FED871B20
:102CC000CDE90A019DED220B06F042FF8DED020BCE
:102CD0009FED900B53EC102B9DED020B51EC100B64
:102CE000FDF7D0FB9FED7D1BCDE906019DED240B8B
:102CF00006F02EFF8DED020B9FED880B53EC102B91
:102D00009DED020B51EC100BFDF7B9FBCDE9040171
:102D10009DED060B53EC102B9DED040B51EC100BAD
:102D2000FDF709FBCDE908019DED0A0B53EC102BD3
:102D30009DED080B51EC100BFDF7FDFACDE90E01EE
:102D40009DED200B53EC102B9FED760B51EC100BEF
:102D5000FDF798FBCDE90A019DED240B53EC102BF8
:102D60009DED0A0B51EC100BFDF78CFBCDE90C012E
:102D70009DED0E0B53EC102B9DED0C0B51EC100B3D
:102D8000FDF780FBCDE910019DED120B53EC102BEC
:102D90009DED100B51EC100BFDF774FBCDE9140108
:102DA0009DED160B53EC102B9DED140B51EC100BFD
:102DB000FDF768FB9FED491BCDE91A019DED360B30
:102DC00006F0C6FE8DED140B9DED340B06F05CFE97
:102DD0008DED0C0B9FED411B9DED0C0B06F0B8FE2D
:102DE0008DED100B9DED200B53EC102B9FED4F0B39
:102DF00051EC100BFDF746FBCDE90C019DED240BCA
:102E000053EC102B9DED0C0B51EC100BFDF73AFB26
:102E1000CDE90E019DED100B53EC102B9DED0E0B2B
:102E200051EC100BFDF72EFBCDE912019DED140BBB
:102E300053EC102B9DED120B51EC100BFDF722FB08
:102E4000CDE916019DED260B53EC102B9DED160BD5
:102E500051EC100BFDF76FFACDE918019DED1A0B3F
:102E600053EC102B9DED180B51EC100BFDF763FA92
:102E7000CDE91C019DED1E0B53EC102B9DED1C0BA1
:102E800051EC100BFDF757FACDE93E019FED231BE6
:102E90009DED360B06F05CFE8DED1A0B9DED340BAF
:102EA00006F0F2FD8DED120B9FED1C1B9DED120B3C
:102EB00006F04EFE8DED160B9FED081B9DED240BCD
:102EC00006F046FE8DED0A0B9FED041B9DED220BD7
:102ED00006F03EFE8DED060B2CE000000000000029
:102EE000000000400000000000A07440000000004E
:102EF00000E07040000000000000104000000000F2
:102F000000004D400000000000804E40176CC116CC
:102F10006CC1563F0000000000002240000000008D
:102F200000001440555555555555A53F000000006B
:102F30000000E03F1FED0F0B53EC102B9DED060B37
:102F400051EC100BFDF79EFACDE908019DED0A0B3F
:102F500053EC102B9DED080B51EC100BFDF792FA82
:102F60001FED221BCDE90E019DED220B06F0F0FDB9
:102F70008DED060B9FEDB10B53EC102B9DED060B69
:102F800051EC100BFDF77EFA1FED261BCDE90A016F
:102F90009DED240B06F0DCFD8DED060B1FED311BC6
:102FA0009DED240B06F0D4FD8DED000B9FEDA50BE0
:102FB00053EC102B9DED000B51EC100BFDF762FA5A
:102FC0001FED2A0B53EC102BCDE902019DED020BF6
:102FD00051EC100BFDF753FACDE904019DED060B02
:102FE00053EC102B9DED040B51EC100BFDF7A3F9E6
:102FF000CDE908019DED0A0B53EC102B9DED080B5C
:1030000051EC100BFDF797F9CDE90C019DED0E0B7E
:1030100053EC102B9DED0C0B51EC100BFDF72CFA23
:10302000CDE912019DED200B53EC102B9FED870B8A
:1030300051EC100BFDF726FACDE910019DED120BB6
:1030400053EC102B9DED100B51EC100BFDF71AFA01
:10305000CDE914019DED160B53EC102B9DED140BD7
:1030600051EC100BFDF70EFACDE918019DED1A0B8E
:1030700053EC102B9DED180B51EC100BFDF702FAE1
:103080009FED741BCDE91E019DED360B06F060FD32
:103090008DED160B9DED340B06F0F6FC8DED0E0B51
:1030A0009FED6C1B9DED0E0B06F052FD8DED120B8E
:1030B0001FED761B9DED220B06F04AFD8DED0A0BF0
:1030C0001FED7A1B9DED240B06F042FD8DED060BE6
:1030D0009FED620B53EC102B9DED060B51EC100B8A
:1030E000FDF7CDF9CDE908019DED0A0B53EC102B4E
:1030F0009DED080B51EC100BFDF71DF9CDE90E010C
:103100009DED200B53EC102B9FED560B51EC100B4B
:10311000FDF7B8F9CDE90C019DED0E0B53EC102B2A
:103120009DED0C0B51EC100BFDF7ACF9CDE9100146
:103130009DED120B53EC102B9DED100B51EC100B71
:10314000FDF7A0F9CDE914019DED160B53EC102B02
:103150009DED140B51EC100BFDF794F9CDE91A011C
:103160009DED340B06F090FC8DED140B9DED200BC6
:1031700053EC102B9DED140B51EC100BFDF782F965
:10318000CDE916019DED360B53EC102B9DED160B82
:1031900051EC100BFDF776F9CDE918019DED1A0BF6
:1031A00053EC102B9DED180B51EC100BFDF7C3F8F1
:1031B000CDE91C019DED1E0B53EC102B9DED1C0B5E
:1031C00051EC100BFDF7B7F8CDE93C019FED270B53
:1031D00053EC102B9DED3C0B51EC100BFDF7ABF8B5
:1031E000CDE93C019FED230B53EC102B9DED3E0BE5
:1031F00051EC100BFDF746F9CDE91E019DED1E0BBC
:1032000051EC100BFDF750FA4A99C1F813009FEDED
:10321000190B53EC102B9DED3C0B51EC100BFDF7F3
:1032200031F9CDE91E019DED1E0B51EC100BFDF7A0
:103230003BFA4A99C1F817004BB000BD00000000EE
:1032400000002C400000000000003240111111115C
:103250001111813F00000000000008400000000044
:103260000000F03F555555555555C53F000000002D
:1032700080841E4100000000006AF84000BFFEE7A5
:1032800030B505460C4622460021284600F026F8B7
:1032900030BD00000D480E4901600146416000212B
:1032A0008160C160016141618161C161016201634D
:1032B000C162416207498163C1634FF400610164E7
:1032C00041640146044A116070470000EC5A002036
:1032D00048454150345B00209C0000202DE9F0411E
:1032E00005460B4694460027002402E03F021F4398
:1032F000641C042CFAD3604605F00306294646B147
:10330000344603E001F8013B401E641C08B1042C64
:10331000F8D30A4601E080C2001F0428FBD2114600
:1033200002E001F8013B401E0028FAD1BDE8F0811F
:103330000EB50121880303F0BFFC0021084605F00B
:103340005DFD06208DF8080000208DF809000120A1
:103350008DF80A008DF80B0002A800F0DDF90120BD
:10336000009000208DF8040008208DF80500012051
:103370008DF806006846FEF789FC0EBD024613462E
:1033800010E010782A2805D01078202802DB107869
:103390007A2801DDFF20704710782C2801D1481EC3
:1033A000C1B2521C0029ECD1D01AC0B2F3E7000020
:1033B000F8B504460D4609A12846FCF7A3FF0646CA
:1033C00009213046FFF7DAFF0746FF2F05D0F01935
:1033D000694600F02AF9C4F81B00F8BD24474E479F
:1033E000474100002DE9F0472DED028B82B00446E5
:1033F000884685A14046FCF785FF074601213846EF
:10340000FFF7BCFF0546FF2D2FD0781901A900F06A
:103410000CF982469DF804100A2000F0FBF8BAFB74
:10342000F0F6781901A900F000F982469DF8041021
:103430000A2000F0EFF8BAFBF0F100FB11A942F20C
:103440001070B6FBF0F020716420B6FBF0F0642140
:10345000B0FBF1F201FB120060716420B6FBF0F1E9
:1034600000FB1160A071A4F8079003213846FFF714
:1034700085FF0546FF2D42D0781901A900F0D5F847
:1034800006469DF80400801CC1B20A2000F0C2F874
:10349000B6FBF0F044F8090F9DF80400801CC1B29F
:1034A0000A2000F0B7F8B6FBF0F100FB116000EE67
:1034B000100AB8EE408A05210A2000F0ABF8216816
:1034C000484300EE100AF8EE400A9DF80400C0F1EF
:1034D0000500C1B20A2000F09DF800EE100AB8EE17
:1034E000400A20EE080A9FED4A1AC0EE011A30EE9B
:1034F000A10ABCEEC00A10EE100A44F80909042122
:103500003846FFF73BFF0546FF2D01D0785D60731D
:1035100005213846FFF732FF0546FF2D44D07819C4
:1035200001A900F082F806469DF80400801CC1B293
:103530000A2000F06FF8B6FBF0F044F80E0F9DF88B
:103540000400801CC1B20A2000F064F8B6FBF0F160
:1035500000FB116000EE100AB8EE400AB0EE408A9F
:1035600005210A2000F056F82168484300EE100AB1
:10357000F8EE400A9DF80400C0F10500C1B20A202F
:1035800000F048F800EE100AB8EE400A20EE080AF3
:103590009FED1F1AC0EE011A30EEA10ABCEEC00A60
:1035A00010EE100A44F80E0906213846FFF7E6FE31
:1035B0000546FF2D01D0785DA07409213846FFF73C
:1035C000DDFE0546FF2D1AD0781901A900F02DF86F
:1035D000064642F21070B6FBF0F0E0706420B6FBD5
:1035E000F0F06421B0FBF1F201FB1200A070642046
:1035F000B6FBF0F100FB116000F5FA60208002B02C
:10360000BDEC028BBDE8F08724474E524D430000CD
:103610000000704210B50246012000E050430B004C
:10362000A1F10104E1B2F9D110BD2DE9F34F81B050
:1036300007463C460020009083468146002680468F
:1036400028E020782D2802D148F00208641C207858
:103650002C2802D020782A2800D11CE020782E289F
:1036600003D148F00108641C09E02078392802DC05
:103670002078302803DA4FF0000900260BE008F02C
:10368000010010B1701CC6B203E009F1010000F0A6
:10369000FF09641CD5E700BF08F0020000B17F1CE1
:1036A00000250EE0A9F10100401BC1B20A20FFF77E
:1036B000B1FF795D3039009A00FB01200090681C51
:1036C000C5B24D45EEDB052E00DD052602980670DD
:1036D00000250EE0701E401BC1B20A20FFF79AFFC2
:1036E00009F101012944795C303900FB01BB681CF8
:1036F000C5B2B542EEDB31460A20FFF78BFF0099D9
:1037000001FB00BA08F0020008B1CAF1000A5046F5
:10371000BDE8FE8F7047000070B5002100230F2226
:10372000C4781CB3174C246804F4E064C4F5E06466
:10373000C4F30721C1F10404E3B20A4144789C4078
:10374000E1B28478144021430C07210E0E4C057819
:103750006155047804F01F050124AC4005786D1113
:10376000AD0005F1E025C5F8004109E0047804F05A
:103770001F050124AC40054D0678761145F826401A
:1037800070BD00000CED00E000E400E080E100E02E
:103790007047000010B50348006810B10148006888
:1037A000804710BDB400002070B5044600F0AEF8AC
:1037B0000020414908704149087041490870414959
:1037C0000860414908604149087041490870414911
:1037D0000870414908604149086041490860414812
:1037E000006858B14048056845B13E48066803E0A6
:1037F000761E002028602D1D002EF9D100203B49A7
:1038000008603B4908603B4908603B4908603B4908
:1038100008603B4908603B4908603B49087002F07A
:1038200099F802F0D3F8204601F0E6FD208800B1B7
:1038300070BD204601F046FE208800B1F8E7204622
:1038400001F04CFE208800B1F2E7204601F0C6FEF0
:10385000208800B1ECE7204602F0ACF8208800B1E7
:10386000E6E7204602F08AF9208800B1E0E720462A
:1038700002F04EFC208800B1DAE7204601F0EAFDB4
:10388000208800B1D4E7204603F064F8208800B116
:10389000CEE7204602F086FB208800B1C8E720462C
:1038A00003F0BCF8208800B1C2E701F0D1FCFFF7BB
:1038B0006FFF00BFBCE70000C8000020C900002067
:1038C000FC0000206401002068010020E2000020CC
:1038D000E3000020E4000020F0000020F4000020BD
:1038E000F8000020B4FE0008B0FE0008A800002088
:1038F000AC000020B0000020B4000020B800002080
:10390000BC000020C00000202A01002006480068FA
:103910000649096800EB810005490860084600680F
:1039200020F0070008607047B0FE0008B4FE0008F1
:103930006C01002010B500242D480078012800D02B
:1039400010BD00BFFCF754FC044600BF29480078B6
:1039500028B900BF2046FCF74FFC00BFF0E7254820
:103960000078401E2349087008460078002805DDCD
:1039700000BF2046FCF740FC00BFE1E71E4800788E
:10398000002805DD00BF2046FCF736FC00BFD7E766
:1039900001F0CCFF194908700846007800EB4000A0
:1039A000174951F820001749086008460068164971
:1039B0000968884205D100BF2046FCF71DFC00BF06
:1039C000BEE710480068D0F88400401C0D49096823
:1039D000C1F884000D480068401C0C490860FDF7E0
:1039E0007BF800BF2046FCF707FC00BF00BFA7E73D
:1039F000C9000020C8000020FC000020E3000020D7
:103A0000387400206801002064010020200100209B
:103A10002DE9F04104460E46154600271B48007864
:103A2000002804DD42F6E1602880BDE8F0811CB981
:103A300045F6C3502880F8E700BF00BFFCF7D8FB6D
:103A4000074600BF00BF1248206066600020206269
:103A500084F82500A062402084F8240004F10800C6
:103A600001F073FE204601F0A1FD0A480088401CC9
:103A70000849088000BF00BF3846FCF7BDFB00BF07
:103A800000BF0020288000BFCFE70000C800002052
:103A90004D555458E00000202DE9F04788B0054608
:103AA000894690461C46109E4FF0000A8A480078CE
:103AB000002805DD46F2AE10308008B0BDE8F08782
:103AC0001DB945F6C3503080F7E7B8F1000F03D0B9
:103AD000B8F5004F02D100E000BF03E045F62560D5
:103AE0003080EAE700BF7D492868884203D045F668
:103AF000C4503080E1E70CB10020206000BF00BF5F
:103B0000FCF776FB824600BF00BF95F82500C0B9E0
:103B10007348006828627248006890F8370085F89A
:103B20002400012085F825000CB1A86A206000BFA0
:103B300000BF5046FCF760FB00BF00BF0020308094
:103B4000BBE76749286A0968884212D195F82500C1
:103B5000401C85F825000CB1A86A206000BF00BF9A
:103B60005046FCF749FB00BF00BF45F28270308031
:103B7000A3E708F4004050B100BF00BF5046FCF777
:103B80003BFB00BF00BF46F2B010308095E75548C0
:103B9000007800280ADD00BF00BF5046FCF72CFB70
:103BA00000BF00BF46F66350308086E72F6A97F863
:103BB00037004B49096891F8371088423ADD97F889
:103BC000360008282AD2DFE800F004151E1F171659
:103BD0002021384601F060FF4148006890F8370026
:103BE00087F8370097F8370001F0C0FE384601F03B
:103BF00015FF1EE000BF00BF3948006890F837008D
:103C000087F8370015E000BF00BF00BF34480068E8
:103C100090F83710384601F075FD0AE000BF00BF8C
:103C20005046FCF7E9FA00BF00BF46F62D60308031
:103C300043E700BF4B4604222946684601F0DAFC00
:103C400000BF00BF5046FCF7D7FA00BF00BF00F02E
:103C500005F900BF00BFFCF7CBFA824600BF00BFEA
:103C60001F48006890F8350030B101280CD00228B8
:103C70001AD0032821D110E01CB119480068006C4B
:103C80002060002030801CE01CB115480068006CEA
:103C9000206046F2A910308013E00CB100202060B3
:103CA00047F2D92030800CE01CB10D480068006C50
:103CB000206045F6C250308003E046F62E6030802A
:103CC00000BF00BF00BF00BF5046FCF795FA00BF21
:103CD00000BF00BFF1E60000C80000204D55545859
:103CE00064010020FC0000202DE9F84F04468846BE
:103CF00015464FF0000A55480078002804DD46F2CA
:103D00000E202880BDE8F88F1CB945F6C3502880E6
:103D1000F8E7B8F1000F03D0B8F5004F02D100E08A
:103D200000BF03E045F625602880EBE700BF484967
:103D30002068884203D045F6C4502880E2E700BFDF
:103D400000BFFCF755FA824600BF00BF4149206A18
:103D5000096888420AD000BF00BF5046FCF74CFA01
:103D600000BF00BF45F281702880CBE7FDF7BAFAAB
:103D70000746A76294F82500401E84F8250094F8B1
:103D8000250000280ADD00BF00BF5046FCF734FACA
:103D900000BF00BF45F283702880B3E704F1080933
:103DA000B9F8080068B90020206284F8250000BF37
:103DB00000BF5046FCF720FA00BF00BF002028805B
:103DC000A0E72448006890F8370094F8241088424F
:103DD00019D02048006801F05FFE94F824001D49C6
:103DE000096881F837001B49096891F8370001F02C
:103DF000BDFD1848006801F031FE1648006890F8D3
:103E0000370015490870D9F800008668266296F8D0
:103E1000370084F82400012084F8250000231A4686
:103E200031462046009701F001FD00BF00BF50461B
:103E3000FCF7E2F900BF00BF08F4004008B900F049
:103E40000DF80020288000BF5CE70000C8000020BB
:103E50004D55545864010020E200002010B50024A4
:103E60001F480078002800DD10BD1E48007800289B
:103E700000DDF9E700BFFCF7BBF9044600BF01F025
:103E800055FD194908700846007800EB40001749B5
:103E900051F820001649086008460068154909686D
:103EA000884205D100BF2046FCF7A6F900BFDBE73A
:103EB0000F480068D0F88400401C0D490968C1F81B
:103EC00084000D480068401C0B490860FCF7FFFDAA
:103ED00000BF2046FCF790F900BF00BFC4E7000018
:103EE000C8000020FC000020E300002038740020FF
:103EF00068010020640100202001002070B5044604
:103F0000002518480078002803DD46F6625020801E
:103F100070BD15480078012803D045F689602080DF
:103F2000F6E712480078FA2803DB45F209202080E2
:103F3000EEE700BF00BFFCF75BF9054600BF00BF1E
:103F40000A480078401C0949087001F0D3FD00BF01
:103F500000BF2846FCF750F900BF00BF00202080BA
:103F600000BFD5E7C8000020C9000020FC000020E9
:103F700070B50446002520480078002803DD46F689
:103F80006550208070BD1D480078012803D045F69B
:103F900089602080F6E71A48007818B946F6645020
:103FA0002080EFE700BF00BFFCF722F9054600BF05
:103FB00000BF13480078401E114908700846007879
:103FC00000280ADD00BF00BF2846FCF715F900BF36
:103FD00000BF46F663502080D4E701F099FD00BF92
:103FE00000BF2846FCF708F900BF00BFFFF736FF07
:103FF0000020208000BFC5E7C8000020C9000020C5
:10400000FC0000202DE9F04104460E4617461D46EF
:104010004FF0000818480078002804DD42F6E160FF
:104020002880BDE8F0811CB945F6C3502880F8E728
:1040300000BF00BFFCF7DCF8804600BF00BF0F48A0
:104040002060276200206062666004F1080001F0D1
:104050007CFB204601F07AFD09480088401C084995
:10406000088000BF00BF4046FCF7C6F800BF00BF95
:104070000020288000BFD4E7C800002053454D41F0
:10408000040100202DE9F04788B006468946904695
:104090001C46109D4FF0000A60480078002806DD9D
:1040A00046F2AE102880002008B0BDE8F08726B99F
:1040B00045F6C35028800020F6E7B8F1000F03D082
:1040C000B8F5004F02D100E000BF04E045F62560DE
:1040D00028800020E8E700BF51493068884204D0BA
:1040E00045F6C45028800020DEE70CB10020206097
:1040F00000BF00BFFCF77CF8824600BF00BF306AFB
:1041000088B1306A401E30620CB1706A2060376A34
:1041100000BF00BF5046FCF76FF800BF00BF002093
:1041200028803846C0E708F4004060B1376A00BF15
:1041300000BF5046FCF760F800BF00BF46F2B01069
:1041400028803846B0E73748007800280BDD00BFEC
:1041500000BF5046FCF750F800BF00BF46F6635062
:1041600028800020A0E74B4606223146684601F031
:1041700041FA00BF00BF5046FCF73EF800BF00BF49
:10418000FFF76CFE00BF00BFFCF732F8824600BFAD
:1041900000BF2548006890F8350030B101280CD0E8
:1041A00002281AD0032821D110E01CB11E48006853
:1041B000006C20600020288024E01CB11A480068B0
:1041C000006C206046F2A91028801BE00CB1002092
:1041D000206047F2D920288014E01CB11248006802
:1041E000006C206045F6C25028800BE046F62E6039
:1041F000288000BF00BF5046FBF7FEFF00BF00BF96
:10420000002051E700BF376A00BF00BF5046FBF7F0
:10421000F3FF00BF00BF384646E70000C80000209B
:1042200053454D41FC000020640100202DE9F04180
:1042300005460E4614462DB945F6C3502080002091
:10424000BDE8F0814EB1B6F5007F07D0B6F5004F5E
:1042500005D0B6F5024F04D102E000BF00BF00BF99
:1042600004E045F6256020800020E9E700BF0A4908
:104270002868884204D045F6C45020800020DFE73B
:10428000FDF730F88046234642463146284601F085
:1042900081FC07463846D3E753454D4110B50446E7
:1042A00012480078E8B901F041FB1149087008464E
:1042B0000078104908700E48007800EB40000E4965
:1042C00051F820000D490860084600680C49086054
:1042D000012006490870FCF7E9FB43F6992020808D
:1042E00002E045F68A60208010BD0000C900002071
:1042F000E3000020E2000020387400206801002064
:10430000640100202DE9F04107464FF0000800BF8E
:1043100000BFFBF76DFF804600BF00BF00203B4998
:1043200008803B4908603B4908603B4908603B49BD
:1043300008603B49088100BF00BF4046FBF75CFFB7
:1043400000BF00BF00BF00BFFBF752FF804600BFA9
:1043500000BF3448046800BF00BF4046FBF74CFF75
:1043600000BF00BF21E000BF00BFFBF741FF804658
:1043700000BF00BF00206C34E06320602063A061B8
:10438000A082E0826062A062FCF7ACFF20626C3C1D
:1043900004F158060020B081D4F8B04000BF00BF3F
:1043A0004046FBF729FF00BF00BF002CDBD100BF58
:1043B00000BFFBF71DFF804600BF00BF1A4805681D
:1043C00000BF00BF4046FBF717FF00BF00BF12E071
:1043D00000BF00BFFBF70CFF804600BF00BF05F128
:1043E00020060020B081AD6900BF00BF4046FBF74A
:1043F00003FF00BF00BF002DEAD102F0BBF902F0BD
:10440000B3FB00203880BDE8F08100000A010020E5
:104410001C0100203001002054010020F400002085
:104420002C74002024010020E8000020F8B5044688
:1044300000266946324800F00FFDBDF8000018B1B3
:10444000BDF800002080F8BD6A460021022000F07F
:104450007BFDBDF8000018B1BDF800002080F2E738
:1044600000BF00BFFBF7C4FE064600BF00BF002030
:104470002449086000BF00BF3046FBF7BDFE00BF07
:1044800000BF00252048006820490968884205D9F6
:104490001D4800681D490968B0FBF1F525B91A48A7
:1044A00000680A21B0FBF1F56A460021284600F0B9
:1044B0004BFD6946124800F0B5F9BDF8000018B18F
:1044C000BDF800002080BEE700BF00BFFBF790FEF4
:1044D000064600BF00BF00200D490860094800687B
:1044E0000C49086001200C49087000BF00BF30462D
:1044F000FBF782FE00BF00BF0020208000BFA2E7C4
:10450000D47800200C010020E4FE0008CCFE000856
:104510001C010020100100201801002010B50348E4
:10452000006810B101480068804710BDB800002045
:104530002DE9FF4F85B004469046DDE91995159F9A
:10454000139E002002905C480078002805DD47F2A9
:104550004A10288009B0BDE8F08F1CB947F2AD10B1
:104560002880F7E7B8F1000F03D147F24F102880F9
:10457000F0E71EB946F62F602880EBE74F48006849
:10458000874203D246F630602880E3E71498B842A9
:1045900003D346F631602880DCE71298402803D325
:1045A00046F273202880D5E712983F2806D1444868
:1045B000844203D046F273202880CBE7204601F0E6
:1045C000B7FD0020288009F0010088B109F0020041
:1045D00070B1B3460020049007E00020CBF8000043
:1045E0000BF1040B0498401C04900498B842F4D3D7
:1045F000149806EB80000390CDE9007932464046DE
:10460000039B089900F0C6FA8346C4F828800898EE
:10461000E06206982062129884F83700C4F800B06F
:104620000398A060189860606662A763A4F83C9045
:104630004FF0000A08E0002104F1700040F82A1051
:104640000AF1010000F0FF0ABAF1000FF3D004F103
:104650005800169900F0A2FF204600F037F800BF7E
:1046600000BFFBF7C5FD029000BF00BF94F8370004
:1046700001F07CF9204601F0F1F9204601F00EFD31
:1046800010480088401C0F4908800F480078012816
:1046900007D000BF00BF0298FBF7AEFD00BF00BF10
:1046A00058E700BF00BF0298FBF7A6FD00BF00BFA0
:1046B000FFF7D4FB00BF4DE7C8000020E0FE000874
:1046C0007473002028010020C900002010B50446A2
:1046D0000348006818B1204601490968884710BDA1
:1046E000A800002070B504460D4600264348007817
:1046F000002803DD47F24E10288070BD40488442F8
:1047000003D147F24C102880F7E77CB900BF00BF07
:10471000FBF76EFD064600BF00BF3A48046800BFC5
:1047200000BF3046FBF768FD00BF00BF00BF00BF01
:10473000FBF75EFD064600BF00BF94F83600082870
:104740002DD2DFE800F004090E10080A0F112046F0
:1047500001F0A2F92EE02DE000BF204601F0DEFFBF
:1047600028E000BF00BF00BF94F83400082810D232
:10477000DFE800F004070508090A0B0600BF00BFC8
:1047800008E000BF00BF00BF00BF204601F015F8E1
:1047900000E000BF00BF204601F0C0FF0AE000BFFC
:1047A00000BF3046FBF728FD00BF00BF46F62D6076
:1047B0002880A2E700BF04F1580000F0CDFE20469B
:1047C00000F024F8204601F081FC0F480088401ECC
:1047D0000D490880204601F0ABFCFF2084F836002C
:1047E00000BF00BF3046FBF707FD00BF00BF002041
:1047F0002880FFF733FB00BF7FE70000C8000020E0
:1048000074730020640100202801002010B50446C4
:104810000348006818B1204601490968884710BD5F
:10482000AC00002070B504460D46002615480078FF
:10483000002803DD47F25510288070BD00BF00BF7F
:10484000FBF7D6FC064600BF00BF1CB10E4800684F
:1048500084420AD100BF00BF3046FBF7CDFC00BF49
:1048600000BF47F257102880E7E700BF00BF30467F
:10487000FBF7C2FC00BF00BF2946204601F0B2FC96
:1048800000BFDAE7C80000206401002010B504462C
:104890000348006818B1204601490968884710BDDF
:1048A000B00000202DE9F04780460E4614461D4614
:1048B0004FF000096F480078002805DD46F2AE1081
:1048C00028800020BDE8F0871EB1B6F5004F02D168
:1048D00000E000BF04E045F6256028800020F1E7F5
:1048E00000BF0CB10020206000BF00BFFBF780FCC0
:1048F000814600BF00BF60480068406CA8B35E48B6
:104900000068406C401E5C49096848645A48006869
:10491000476C1CB158480068006C2060FCF7E2FC52
:1049200055490968096C401A53490968C1F898004B
:1049300051480068D0F89C004F490968D1F8981098
:10494000884207D24C480068D0F898004A49096864
:10495000C1F89C0000BF00BF4846FBF74DFC00BFFC
:1049600000BF002028803846ACE7FFE706F400408F
:1049700058B100BF00BF4846FBF73EFC00BF00BF78
:1049800046F2B010288000209CE73C4800780028C0
:104990000BDD00BF00BF4846FBF72EFC00BF00BF89
:1049A00046F66350288000208CE74346072200210A
:1049B000084600F01FFE00BF00BF4846FBF71CFC86
:1049C00000BF00BFFFF74AFA00BF00BFFBF710FCB3
:1049D000814600BF00BF2848006890F8350020B12C
:1049E000012826D0032834D12CE0FCB122480068ED
:1049F000006C2060FCF776FC1F490968096C401ABE
:104A00001D490968C1F898001B480068D0F89C004F
:104A100019490968D1F89810884207D216480068E9
:104A2000D0F8980014490968C1F89C00002028803B
:104A300013E01CB110480068006C206046F2A91019
:104A400028800AE00CB10020206047F2D92028809D
:104A500003E046F62E60288000BF00BF06480068CD
:104A6000476C00BF00BF4846FBF7C6FB00BF00BF56
:104A7000384627E7C800002064010020FC00002021
:104A80002DE9F04106460D4614461DB1B5F5004F1F
:104A900002D100E000BF05E045F62560208000203F
:104AA000BDE8F08100BFFCF71DFC8046234642466E
:104AB0002946304601F022FC07463846F0E7000060
:104AC0002DE9F04705460E4617461C464FF0000AF2
:104AD0002E480078002804DD47F259102080BDE8F8
:104AE000F0871EB946F2D5202080F8E71FB946F2BC
:104AF000D5202080F3E700BF00BFFBF779FB82469B
:104B000000BF00BF0DB922480568286868B900BF1A
:104B100000BF5046FBF770FB00BF00BF00203060B5
:104B2000386047F252102080D9E795F83C0000F039
:104B3000010068B900BF00BF5046FBF75DFB00BF36
:104B400000BF00203060386047F254102080C6E774
:104B500000BF00BF5046FBF74FFB00BF00BF4FF048
:104B60000008D5F8249003E009F1040908F10108D0
:104B7000D9F800000028F7D0C6F80080A86BA0EB99
:104B8000080038600020208000BFA8E7C80000208F
:104B900064010020F0B50446DDE9055602EB85000E
:104BA00020F007004FF0807C071F3846C7F800C090
:104BB000071F38463C60DFF834C2071F3846C7F885
:104BC00000C04FF0123C071F3846C7F800C04FF036
:104BD000033C071F3846C7F800C04FF0023C071FD0
:104BE0003846C7F800C0071F38463B60071F3846E5
:104BF00039604FF0113C071F3846C7F800C04FF02E
:104C0000103C071F3846C7F800C04FF0093C071F8B
:104C10003846C7F800C04FF0083C071F3846C7F8B1
:104C200000C04FF0073C071F3846C7F800C04FF0E0
:104C3000063C071F3846C7F800C04FF0053C071F69
:104C40003846C7F800C04FF0043C071F3846C7F885
:104C500000C006F00407002F7ED04FF0007C071F35
:104C60003846C7F800C0DFF888C1071F3846C7F8C4
:104C700000C0DFF880C1071F3846C7F800C0DFF862
:104C800078C1071F3846C7F800C0DFF870C1071F9A
:104C90003846C7F800C0DFF868C1071F3846C7F8B4
:104CA00000C0DFF860C1071F3846C7F800C0DFF852
:104CB00058C1071F3846C7F800C0DFF850C1071FAA
:104CC0003846C7F800C0DFF848C1071F3846C7F8A4
:104CD00000C0DFF840C1071F3846C7F800C0DFF842
:104CE00038C1071F3846C7F800C0DFF830C1071FBA
:104CF0003846C7F800C0DFF828C1071F3846C7F894
:104D000000C0DFF820C1071F3846C7F800C0DFF831
:104D100018C1071F3846C7F800C04FF0834C071F63
:104D20003846C7F800C0DFF804C1071F3846C7F887
:104D300000C0DFF8FCC0071F3846C7F800C0DFF826
:104D4000F4C0071F3846C7F800C0DFF8ECC0071FE3
:104D50003846C7F800C000E047E0DFF8E0C0071FB2
:104D60003846C7F800C0DFF8D8C0071F3846C7F874
:104D700000C0DFF8D0C0071F3846C7F800C04FF0AA
:104D8000824C071F3846C7F800C0DFF8BCC0071FB9
:104D90003846C7F800C0DFF8B4C0071F3846C7F868
:104DA00000C0DFF8ACC0071F3846C7F800C04FF09E
:104DB000814C071F3846C7F800C0DFF898C0071FAE
:104DC0003846C7F800C04FF0804C071F3846C7F878
:104DD00000C04FF07E5C071F3846C7F800C04FF098
:104DE000000C071F3846C7F800C0F0BDE562000898
:104DF0000000F8410000F0410000E8410000E041FF
:104E00000000D8410000D0410000C8410000C0416E
:104E10000000B8410000B0410000A8410000A041DE
:104E2000000098410000904100008841000070415E
:104E3000000060410000504100004041000030414E
:104E400000002041000010410000E0400000C04090
:104E50000000A0400000404070B505460C460A48DE
:104E60000078002803DD47F25D10208070BD074800
:104E7000854203D147F25B102080F7E721462846A0
:104E800001F01EFB00BFF1E7C80000207473002092
:104E900010B52948006890F83C0000F0040020B1EB
:104EA000254909680868FBF7EBFD2448006890F87D
:104EB0003C0000F0040020B1204909680868FBF7B5
:104EC000ECFD1F48006810B11D4800688047FCF7E2
:104ED00009FA04461848006818490968884215D03C
:104EE00015480068D0F88C00201A13490968C1F8E9
:104EF000880011480068D0F890000F490968D1F87F
:104F0000881008440C490968C1F890000B480068F3
:104F1000C0F88C4008480068D0F8A8000949096822
:104F2000884205D20748006803490968C1F8A8000B
:104F300000200449086010BD6401002068010020C1
:104F4000BC000020F80000202DE9F04105460E4687
:104F50001446002727480078002804DD47F2752012
:104F60002080BDE8F08124480078002803DD46F663
:104F700063502080F5E736B1022E05D0042E0AD00A
:104F8000082E09D101E000BF00BF1DB947F27E2005
:104F90002080E6E704E003E045F625602080E0E7B6
:104FA00000BF00BF00BFFBF723F9074600BF00BFEB
:104FB0002346324629461148006801F051FB2088FB
:104FC00038B100BF00BF3846FBF716F900BF00BF7D
:104FD000C7E70A48006800F05FFD00BF00BF384621
:104FE000FBF70AF900BF00BFFEF738FF0020208062
:104FF00000BFB6E7C8000020FC00002064010020CC
:105000002DE9FF5F05460E4617469846DDE90EA4DA
:10501000002000905A480078002804DD47F27520EF
:105020002080BDE8FF9F57480078002803DD46F642
:1050300063502080F5E70AF00E0BBBF1000F09D09A
:10504000BBF1020F07D0BBF1040F10D0BBF1080F6A
:105050000ED101E000BF00BFB8F1000F06D12FB99B
:1050600026B91DB947F27E202080DAE704E003E08C
:1050700045F625602080D4E700BF2AF01E0008B165
:10508000012000E0002003900398012803D145F699
:1050900025602080C5E7CAF3001002900298C0B9CD
:1050A000B8F57A7F03D347F27B202080B9E73B2F06
:1050B00003DD47F27A202080B3E73B2E03DD47F281
:1050C00079202080ADE7632D12DD47F27820208023
:1050D000A7E742F20F70864203DD47F27920208075
:1050E0009FE7B5F57A7F03DB47F27820208098E7C9
:1050F0002548D0F800904FF4FA70B0FBF9F0404426
:1051000000FB09F04FF47A71B0FBF1F14FF46160EC
:105110006843C6EB061200EB8200384400FB09101E
:105120000190019838B300BF00BFFBF761F8009011
:1051300000BF00BF23465A4614480199006801F099
:105140008FFA208838B100BF00BF0098FBF754F8F1
:1051500000BF00BF65E70D48006800F09DFC00BF80
:1051600000BF0098FBF748F800BF00BFFEF776FECF
:105170000020208002E047F27E20208000BF50E720
:10518000C8000020FC000020E4FE000864010020AC
:1051900008B500F01FF86A4600210A48FFF770FCC6
:1051A00009480068401E084908600846006838B988
:1051B0000648006808606A4600210548FFF760FC61
:1051C00008BD0000F0770020600100205C01002095
:1051D000D478002010B50348006810B10148006879
:1051E000804710BDC000002010B5002400BF00BFE4
:1051F000FAF7FEFF044600BF00BF08480078401CD5
:105200000649087000BF00BF2046FAF7F5FF00BF4F
:1052100000BFFFF7BDFFFEF78DFB10BDC8000020EB
:1052200001464A1E4FF0E0235A61084A106820F0F8
:105230007F4000BF10601A46126942F005021A61F1
:105240001A46126942F002021A61704720ED00E02E
:10525000244A2549254A264A2649274A2748284AD2
:10526000284A294A294A2A482A482B4A2B482C4AA4
:105270002C482D4A2D482E482E482F482F4A304A78
:10528000304A3148314A324A324833483348344848
:10529000344835483548364A364A374A374A384816
:1052A00038483948394A3A4A3A4A3B483B483C48E8
:1052B0003C493D483D4A3E4A3E4A3F4A3F4A404AB1
:1052C000404A4148414A424A42484348434A444A84
:1052D0004448454A454A4648464800BF00BF00BFCB
:1052E0007047000018FF00087C00010819FF000843
:1052F0001AFF00081CFF000820FF000824FF000818
:1053000021FF00084CFF00084DFF00084EFF000879
:1053100050FF000852FF000856FF000858FF000821
:1053200078FF00087AFF00087CFF00087EFF000875
:1053300080FF000882FF000884FF0008B0FF00081B
:10534000B1FF0008B2FF0008B4FF0008B6FF000874
:10535000B7FF0008B8FF0008BAFF0008BCFF00084C
:10536000BEFF0008C0FF0008C2FF0008C4FF00081D
:10537000F4FF0008F5FF0008F6FF0008F7FF00083B
:10538000F8FF0008FAFF0008FCFF000824000108ED
:10539000250001082600010827000108280001084F
:1053A0002A0001082C000108300001083100010822
:1053B00032000108330001083400010835000108FB
:1053C0003600010837000108380001083A000108DA
:1053D0003B0001083C0001083E00010840000108B4
:1053E000410001084400010874000108750001082B
:1053F00076000108780001080021034A1160034A81
:105400001180018070470000CC000020D0000020F7
:10541000002419E000BF00BFFAF7EAFE044600BF0F
:1054200000BF0A480068401C084908600848006836
:10543000401C0749086000BF00BF2046FAF7DCFEA9
:1054400000BF00BFFEF7A6F9E4E70000C40000209B
:105450000C01002010B58AB0044600200E490860F7
:105460000B2000210591CDE90704069108460B4960
:1054700009680B4A12680B4B1B68CDE90132CDE974
:1054800003103F200023084A08A100900C48FFF7B2
:105490004FF80AB010BD0000C40000208CFE0008C8
:1054A00088FE000884FE00081154000875432F4F41
:1054B000532D4949492049646C65205461736B0040
:1054C000747300200021034A1160034A1180018097
:1054D00070470000D4000020D800002070B50146BD
:1054E0001A4D2D681DB945F21E750D8070BD184D01
:1054F0002D881DB945F21D750D80F7E7134D2868FD
:105500002A681032124D2D886D1EACB2002308E0BF
:105510000260002545600581C560103010325D1CB9
:10552000ABB2A342F4DB0025056045600581C56090
:10553000064D2D68074E3560054D2D88B580002538
:10554000F58035810D8000BFD0E70000C4FE000863
:10555000BCFE00082C74002010B5014648894B8918
:10556000002B17DD0A680C4B1B6813600A4C4B6854
:1055700023602346DB884C891B1B074CE3802346B2
:105580009B884C892344044CA38000234B818B814E
:105590000B604B6010BD00002C74002001810022C4
:1055A00042818281026042607047000009A1C161AE
:1055B000002141610849096811B90021816105E0B4
:1055C0000549096881610449096848610249086020
:1055D0007047000020000000DC0000200021034A8A
:1055E0001160034A1180018070470000DC00002038
:1055F000E00000202DE9F04105460C4616461F4606
:105600001548006880F8346000201349096881F863
:10561000350039461048006800F02AFD6CB104F1ED
:105620000808EC60012229460B48006800F016F8D3
:105630002946404600F08EF806E000200649096839
:10564000C88705490968086303480168204600F0D7
:1056500019F8BDE8F08100006401002010B5C28790
:10566000016300230AE000244C600C600C614C6173
:105670000C83CC61886020315C1CA3B29342F2DBC6
:1056800010BD000030B548B14568C1F8B45000F114
:105690000804226893681D6AC56113E091F83450CC
:1056A000022D02D0072D08D103E007A5C1F8B450A0
:1056B00007E007A5C1F8B45003E008A5C1F8B4504D
:1056C00000BF00BF30BD00005461736B205100006B
:1056D0005461736B2053656D0000000020000000D2
:1056E00030B507A5C1F8B45000F1080422681AB11A
:1056F00093681D6AC56101E001A5C56130BD000068
:10570000200000002DE9F04304460F4684F837706E
:10571000256BB4F83E8013E0D5F80C9009F108062B
:105720003089012807D92946304600F05EF829461D
:10573000304600F00FF82035A8F101001FFA80F87C
:10574000B8F1000FE8D1BDE8F083002101604160AD
:1057500001817047F0B58E6896F8375007893FB9D8
:105760000127078100274F600F600160416023E03F
:1057700007897F1C0781026806E0946894F83770F7
:10578000AF4200DD02E05268002AF6D100BF32B914
:1057900000274F6043680B60596041600CE0176858
:1057A0002FB9116000270F604A60016004E01368A0
:1057B0000B604A6059601160F0BD2DE9F04104466C
:1057C000256BE68F0AE0D5F80C8008F1080729461A
:1057D000384600F00AF82035701E86B2002EF2DC42
:1057E0000020E0872063BDE8F08110B50489012C1A
:1057F00003D100240460446011E00C6824B94A68B5
:105800000024146002600AE04C6824B90B6800248C
:105810005C60436003E00B684A685A601360048967
:10582000641E048100244C600C6010BD2DE9F84317
:1058300006460C4617469846089D94F836000828F8
:105840005BD2DFE800F0040508090607323300BF29
:1058500000BF00BF52E000BF94F83400032807D116
:1058600043463A4621463046009500F04AF803E0A8
:105870002765A4F85480256436B12046FFF79DFFC4
:1058800021463046FFF72CFF94F83600032802D15A
:10589000204600F043FF204600F0AAF800203434F0
:1058A000A070607004F8340928E000BF94F8340058
:1058B000032807D143463A4621463046009500F07A
:1058C00020F803E02765A4F85480256436B120460B
:1058D000FFF773FF21463046FFF702FF94F83600CA
:1058E000072802D1204600F019FF04203434A070AC
:1058F0000020607004F8340900E000BF00BFBDE87C
:10590000F883F0B50446059E086BCD8F0AE0C768A2
:10591000A74204D1046142610383C66104E02030E0
:105920006F1EBDB2002DF2DC00BFF0BD70B50025CA
:10593000074C03E005F12000C5B2241D20680028B3
:10594000F8D02068FAF75FFC2844C5B2284670BD3D
:10595000A0000020002004E00021034A42F82010AB
:10596000401C0228F8D37047A000002030B542093F
:1059700000F01F030121C3F11F04A140034C54F8A0
:1059800022400C43014D45F8224030BDA0000020CC
:1059900030B5420900F01F030121C3F11F04A140EB
:1059A000034C54F822408C43014D45F8224030BD51
:1059B000A00000200021034A1160034A11800180E9
:1059C00070470000E8000020EC00002000210AE001
:1059D00001EB4102054B03EB8200002202810260D1
:1059E00042604A1CD1B24029F2D37047387400207B
:1059F00010B5044694F83700FFF7B8FF94F8370065
:105A000005490978884203D1204600F027F802E0D2
:105A1000204600F003F810BDE200002010B590F819
:105A2000373003EB43030C4C04EB83010B893BB988
:105A300001230B810023C36003610860486009E013
:105A40000B895B1C0B810B68C360002303610A6830
:105A50001061086010BD00003874002010B590F887
:105A6000373003EB43030B4C04EB83010B893BB949
:105A700001230B810023C36003610860486008E0D4
:105A80000B895B1C0B810023C3604A680261D060F4
:105A9000486010BD387400202DE9F041054695F8A6
:105AA000370000EB4000124901EB80042F69EE68DB
:105AB00087B946B9002020812060606095F83700E2
:105AC000FFF766FF0EE02089401E20810020306134
:105AD000266007E02089401E2081FE600EB96760C5
